:020000040000FA
:0600000002011A0221AB0F
:03002B0002292681
:0300330002290897
:0300530002221E68
:03006B000228DF89
:10008300022017E5C754F84401F5C779012200009F
:100093000080FB120086B90003020104E479217891
:1000A30008B800028004F709D8FCE479297802B87B
:1000B30000028004F709D8FCE490028178A879074C
:1000C3008002F0A3D8FCD9FA781A90014A7A01BACF
:1000D30000028007E493A3F608DAF97A287B0990F3
:1000E300014B780279048015E493A3AD82AE838A31
:1000F300828B83F0A3AA82AB838D828E83D8E9D9C6
:10010300E77582B27583A8740312012C7582917509
:100113008300740012012C75D00075813F7518811E
:10012300751902759F00020096C09FF59FE473D076
:100133009F22D083D082C09FE493C0E0740193C018
:10014300E0740293F59F2201FF0000B40000280031
:100153002800283075A000A000A000A0000008001F
:1001630008E001F000100010001000100010001053
:100173000050005000500010001000D00700000095
:100183000000000F0001000500307507001000019A
:100193000081FF00000000FF4A0668065006FF02C8
:1001A300020208025000A0000000E803026282017C
:1001B300000053820266820100007F09026C820103
:1001C3000000B302026682010000800902888201F6
:1001D3000000C902026682010000810902708201E7
:1001E3000000CB02026682010000820902728208CB
:1001F3000000CC02026682010000830902748201BE
:1002030000008409FF0100FF20026282010000D187
:1002130081026682010000E8090276820000000084
:1002230000026A820300001903200C200C200C201A
:100233000C200C200C200C200C200C200C200C205B
:100243000C200CB40ECC0EAE0E1409485947494E7F
:1002530045582D524D2D303030312D4C2020051274
:1002630050002003020A000201060302F0FF536953
:100273006D706C6520424C452050657269706865ED
:1002830072616C980F00009E0FFFFF0202020202D0
:1002930002020202010D000000100102628201004D
:1002A3000056820266820100006B0A02848201000A
:1002B3000072070266820100006C0A02828201005A
:1002C300006A810266820100006D0A0280820100D9
:1002D300004F810266820100006E0A027E820100E5
:1002E3000097800266820100006F0A027C8201008F
:1002F30000CD80026682010000700A02968201002E
:1003030000DF80026682010000710A027882010028
:1003130000BB80026682010000720A025C82010057
:10032300004181026682010000730A026E820100AD
:1003330000740A01E803053F100AFF00013075034A
:1003430002010600000000000000000000000000A1
:10035300000000000000000000000000000000FF9B
:10036300FF0600800CE8030A4368617261637465E9
:100373007269737469632031000243686172616357
:10038300746572697374696320320008436861722B
:100393006163746572697374696320330010436821
:1003A30061726163746572697374696320340002F6
:1003B300436861726163746572697374696320353C
:1003C3000002628201000059820266820100004736
:1003D3000B028E82030000190902688201000048A3
:1003E3000B026682010000590B0290820100001A81
:1003F300090268820100005A0B0266820100006B49
:100403000B0292820200001B090268820100006C49
:100413000B0266820100007D0B0294820000001C27
:1004230009026A820300001D090268820100007E3E
:100433000B0266820100008F0B028A8204000023F4
:1004430009026882010000900B120135B69703126E
:100453000135CD9703120135FE9703120135399803
:10046300031201356398031201358D980312013588
:10047300A49803120135BB9803120135D2980312D5
:100483000135FB98031201350E99031201352499A6
:10049300031201353799031201355E9903120135B1
:1004A300BCA702120135C0A802120135F8A8021236
:1004B30001351BA90212013526A90212013549A9EA
:1004C3000212013558AA021201352DAB0212013571
:1004D300A8AB0212013530AC021201356BAC02122B
:1004E3000135A2AC0212013530AD0212013509AE5D
:1004F3000212013569AE0212013574AE02120135E2
:10050300F3AE02120135F6AE02120135F9AE021254
:10051300013588AF021201358BAF02120135BBAF33
:1005230002120135E5AF02120135D3B002120135D3
:1005330085B10212013579DE02120135A1DE021204
:100543000135CFDE0212013506DF0212013564DF09
:1005530002120135AFDF02120135FADF0212013553
:100563003AE00212013580E002120135AEE00212D8
:1005730001356BE10212013575E10212013582E1A9
:1005830002120135B5E10212013581E20212013591
:100593008DE202120135A5E202120135AFE2021229
:1005A3000135FFA4031201350DA50312013525A55D
:1005B300031201353DA503120135CC70001201353C
:1005C300787100120135F3710012013514730012B2
:1005D3000135507300120135F97300120135E074CF
:1005E300001201354476001201359B760012013565
:1005F3001C77001201350C7800120135597800126E
:100603000135DF7800120135117900120135257BA0
:1006130000120135677B00120135857B001201351D
:10062300087C00120135DC7C00120135A47D001228
:1006330001352FD20212013502D302120135ABD399
:1006430002120135FED302120135AED40212013576
:100653003AD50212013526D60212013555D60212B9
:10066300013568D702120135B0D70212013585D89A
:1006730002120135C1D802120135DDD8021201354B
:10068300CFA7031201350080031201351680031230
:1006930001353C8003120135588103120135628113
:1006A300031201359782031201358F83031201353B
:1006B30052D90212013582DA02120135B5DA021279
:1006C3000135FFDA02120135C6DC02120135D0AA68
:1006D300011201353AAB0112013599AC0112013512
:1006E300A9AC01120135D6AC011201352DAD0112B1
:1006F3000135D6AD01120135DDAE01120135A7AFCB
:100703000112013507B1011201354AB10112013558
:10071300EFB1011201353CB20112013562B201128F
:10072300013570B40112013575B4011201357AB681
:1007330001120135C7B6011201353AB7011201356D
:100743006DB7011201350FB801120135B8B80112A6
:100753000135F0B801120135F3B8011201353BB987
:10076300011201357BB901120135D2B901120135EC
:10077300AF9003120135C790031201350F91031295
:1007830001352591031201356C91031201358092D5
:10079300031201350D9303120135589303120135EA
:1007A3005429001201356029001201359B290012DA
:1007B3000135E02900120135A02A00120135262B4C
:1007C300001201358B2B00120135B72B00120135B6
:1007D300F02B001201352E2E0012013512300012BB
:1007E3000135F831001201353B33001201358935EB
:1007F300001201359B3600120135E6370012013530
:10080300F638001201351339001201354E39001242
:100813000135703900120135D33900120135943E88
:1008230000120135293F001201357A3F00120135CC
:10083300A13F00120135F33F0012013511400012B0
:1008430001356B4000120135544100120135CA4293
:10085300001201354E4300120135E6E7021201355D
:10086300F0E70212013533E8021201354EE80212B5
:100873000135DEE80212013506E90212013543E9CA
:10088300021201357AE902120135A3E90212013598
:1008930018EA021201352DEA0212013542EA021268
:1008A300013573EA0212013587EA02120135ACEA17
:1008B30002120135E6EA0212013512EB021201358A
:1008C3004AEB02120135C9EB0212013512EC021296
:1008D30001353CEC0212013567EC021201350BA124
:1008E30003120135E99A02120135179B02120135F1
:1008F300659C02120135459D02120135649D021269
:100903000135E19D02120135249E021201357A9FC1
:10091300021201353BA002120135C2A202120135B7
:1009230063A30212013559A40212013556A502121E
:100933000135B0A6021201353BA702120135B09F63
:100943000312013519A0031201356DA003120135FD
:1009530094A003120135C5A00312013509F1021257
:10096300013576F102120135BDF102120135D5F2DE
:1009730002120135D1F302120135B4F4021201352A
:10098300F6B10212013538B2021201350AB302126E
:100993000135E3B302120135DDB402120135BFB5EF
:1009A3000212013528B602120135DEB602120135F4
:1009B30052B702120135BEB702120135E7B7021270
:1009C300013561B802120135FAB8021201355FB977
:1009D3000212013574B902120135BAB90212013596
:1009E300D3B90212013538BA021201353BBA0212E9
:1009F3000135B68D03120135DE8D031201351C8ED0
:100A030003120135DA8E03120135418F03120135CA
:100A13005D8F03120135858F03120135B58F0312E4
:100A23000135C48F031201354190031201356790DC
:100A330003120135BFBA011201359DBC0112013504
:100A4300CFBE011201350BBF0112013538BF0112B0
:100A5300013522C0011201356DC001120135B8C044
:100A630001120135CAC0011201350AC10112013553
:100A73003FC1011201358DC101120135BCC1011203
:100A83000135DFC1011201352CC201120135B1C29A
:100A930001120135CBC4011201350AC70112013518
:100AA3004BC701120135EDC8011201352EC90112E0
:100AB3000135A1C901120135F7C901120135D48DE0
:100AC30002120135D28E021201356B9502120135E5
:100AD3008C9702120135579902120135BF9A0212FF
:100AE3000135B543001201356444001201359144C8
:100AF30000120135D74400120135174600120135A3
:100B0300AD47001201352748001201354248001253
:100B13000135BD4800120135174A00120135774BE4
:100B2300001201357D4C00120135DE4D00120135F6
:100B3300F74D00120135554E00120135434F001297
:100B43000135764F00120135E64F00120135605032
:100B530000120135AA5000120135745100120135FB
:100B6300495200120135285300120135B3530012C4
:100B73000135215400120135955400120135C0543A
:100B8300001201357F5500120135E456001201357C
:100B93000157001201352057001201351158001278
:100BA3000135365800120135605800120135DB5803
:100BB300001201353559001201359E5A00120135D4
:100BC3004C5B001201358D5B00120135008002126F
:100BD30001354E80021201355A80021201353881E7
:100BE300021201356981021201359A81021201351F
:100BF3001A8202120135528202120135A4820212B4
:100C03000135E18202120135FE8402120135248787
:100C1300021201350F8902120135F98A02120135D8
:100C2300F37F00120135BD9601120135ED960112D5
:100C33000135C69D011201354B9F0112013548A5AF
:100C43000112013530A6011201356DA601120135DD
:100C530090A601120135C1A601120135CAA60112DF
:100C63000135D4A601120135C2A701120135B8A876
:100C730001120135BD5B00120135BC5F0012013565
:100C8300C25F00120135FD6600120135166C0012B9
:100C93000135C3F90212013559FA021201356FFA0F
:100CA30002120135E5FA0212013559FB0212013530
:100CB30097FB021201350BFC0212013584FC021270
:100CC30001358DFC0212013599FC02120135AEFC8F
:100CD30002120135ECFC0212013502FD021201354C
:100CE30061FD0212013576F50212013583F5021218
:100CF30001359DF502120135DCF5021201351AF6B4
:100D0300021201357FF60212013594F60212013503
:100D13009FF602120135ACF602120135C3F6021238
:100D23000135D1F602120135DCF602120135E8F67F
:100D330002120135F7F60212013502F702120135EC
:100D430025F702120135CCF702120135DCF7021246
:100D53000135F6F70212013513F8021201352FF8A7
:100D63000212013554F8021201355FF802120135FF
:100D730074F80212013588F802120135E9F80212FB
:100D83000135EFF802120135F5F802120135FBF8CF
:100D93000212013513F90212013546F90212013527
:100DA30092D80112013516D901120135C5D90112A4
:100DB300013524DB0112013545DD0112013531DE38
:100DC3000112013566DE0112013588DE011201359B
:100DD30037DF011201352FE10112013558E101120C
:100DE3000135EAE1011201351CE20112013529E264
:100DF3000112013580E201120135A6E2011201352B
:100E030013E50112013516E6011201356EE60112F2
:100E1300013521CA011201352BCB0112013512CC48
:100E2300011201351CCC011201353ECC01120135F2
:100E33004ACC01120135E3CD0112013512CE011264
:100E430001352ECF0112013587CF01120135EDD0C7
:100E530001120135CCD10112013528D2011201351D
:100E630095D201120135D0D2011201350FD30112EF
:100E73000135C8D501120135E2D5011201356ED60F
:100E8300011201357CD601120135D5D60112013587
:100E9300E3D60112013556D701120135BAD7011233
:100EA300013504D801120135A1F401120135C3F44F
:100EB30001120135E9F601120135FEF9011201357E
:100EC30016FB01120135C9FB01120135ABFC0112FE
:100ED3000135709903120135959903120135079A6B
:100EE30003120135B5CA02120135BECA0212013519
:100EF300C7CA021201359ECB021201354FCD021231
:100F0300013585CD02120135BFCD02120135F5CD74
:100F1300021201352FCE0212013563CE02120135C2
:100F23008FCE02120135D8CE0212013512CF021232
:100F330001355BCF02120135B3CF02120135E8CF81
:100F43000212013543D0021201357DD00212013560
:100F5300CED00212013504D1021201353ED1021264
:100F630001356CD1021201358FD1021201358CA6E5
:100F730003120135B8A60312013513A70312013575
:100F83001DA7031201352DA70312013536E3021203
:100F9300013569E50212013508E60212013584E7DD
:100FA300021201358FC20212013599C202120135B4
:100FB300D7C20212013520C3021201355AC30212ED
:100FC3000135B4C302120135D5C30212013577C608
:100FD3000212013580C602120135D1C60212013553
:100FE300FAC60212013504C70212013570C7021294
:100FF300013504C80212013558C8021201358EC8E2
:101003000212013515C90212013555C90212013503
:101013008DC9021201359FC902120135BEC90212E0
:101023000135C7C9021201358BCA0212013528A343
:101033000312013553A803120135B7950312013585
:10104300ED95031201352396031201357C970312A4
:10105300013537A7031201354DA70312013557A7F1
:1010630003120135A1A7031201358FEC02120135DA
:10107300A8EC021201354CED021201358CED02127F
:101083000135A5ED02120135D9ED0212013526EE27
:10109300021201355AEE021201359CEE021201359D
:1010A3009CF0021201353C9E03120135659E03122A
:1010B30001358E9E03120135299F031201356B9F63
:1010C30003120135A58A03120135CA8A03120135B9
:1010D300F68A0312013553A9031201359A820112CC
:1010E3000135FE8401120135B08601120135A28754
:1010F30001120135278801120135A5880112013536
:10110300D28801120135F68B01120135708C011260
:1011130001355F8D01120135998D01120135D98D8C
:1011230001120135938F01120135E68F011201354A
:101133002F90011201359D9001120135CF900112BC
:101143000135E79001120135FC91011201350C9232
:10115300011201353C93011201355E9301120135F1
:1011630094930112013539950112013578950112D5
:101173000135989601120135D6A503120135E7A56D
:10118300031201350AA90312013549A903120135D6
:10119300F6A90312013522A40312013532A4031266
:1011A300013547A403120135F9A40312013524A222
:1011B30003120135A9A2031201350FA3031201354E
:1011C300159B031201353E9B03120135A49B0312A9
:1011D3000135C49B03120135159C031201356E9C26
:1011E30003120135A89C03120135AB9C0312013590
:1011F3002F8703120135448703120135AD8803128B
:1012030001351989031201358D8903120135A78927
:1012130003120135BE8903120135D1890312013549
:10122300E98903120135FE89031201351F8A03126E
:101233000135708A03120135E0A903120135F0A9C3
:1012430003120135F3A903120135F87F00120135AA
:101253008293031201350D95031201356E95031226
:101263000135B49503120135B59C031201350A9D6E
:1012730003120135789D03120135E89D03120135F0
:1012830091FD02120135BBFD0212013590FE0212DF
:10129300013584FF021201355FBA021201351CBB0E
:1012A3000212013557BB021201357FBB0212013511
:1012B300E1BB021201352DBC0212013586BC0212BC
:1012C300013517BD0212013519BE02120135D6BF11
:1012D3000212013558C002120135BDC00212013598
:1012E300D4C002120135E4C10212013522C2021236
:1012F3000135BCE60112013546EA01120135CEEB98
:101303000112013525EC0112013544EC01120135BE
:10131300C2EC0112013560EE0112013544EF0112F6
:1013230001352EF301120135FEF3011201359983C4
:1013330003120135DE8303120135FB8303120135EA
:10134300AC8403120135FF8403120135DA850312DD
:101353000135F68603120135CFFF01120135BD7F3A
:10136300001201359AA903120135C2A903E0667080
:101373001008A3E066700A08A3E066700408A3E0FF
:101383006622C3E7960809E7960809E7960809E77E
:101393009622C3E09608A3E09608A3E09608A3E08C
:1013A3009622C008C3E096F50808A3E09642080811
:1013B300A3E096420808A3E09645087001D3D0083D
:1013C30022080808EAC0E0EBC0E086F0E7A4FA18B8
:1013D3000986F0E7A42AFA180986F0E7A42AFA187E
:1013E3000986F0E7A42AFA1986F0E7A4FBE5F02AB8
:1013F300FA190886F0E7A42BFBE5F03AFA190886F8
:10140300F0E7A42BFBE5F03AFA18180986F0E7A4F5
:10141300C5F02BFBE43AFA1908E7C5F0C6A426F693
:10142300E5F03BFBE43AFA1886F0E7A4F6E5F008AA
:1014330026F6E43B08F6E43A08F6D0E0FBD0E0FAFF
:1014430022E4CFC0E0E4CEC0E0E4CDC0E0E4CCC011
:10145300E075F020E626F608E633F608E633F608EC
:10146300E633F6181818EC33FCED33FDEE33FEEFDC
:1014730033FFC3EC9709ED9709EE9709EF97191915
:1014830019400FFFEC97FC09ED97FD09EE97FE1944
:101493001906D5F0BFECF709EDF709EEF709EFF7F9
:1014A300191919D0E0FCD0E0FDD0E0FED0E0FF2216
:1014B3006016080808C6C313C618C613C618C61391
:1014C300C618C613C6D5E0EA2270090808082260C8
:1014D30016181818C6C333C608C633C608C633C69B
:1014E30008C633C6D5E0EA22E627F60809E637F64A
:1014F3000809E637F60809E637F622E026F608A3D8
:10150300E036F608A3E036F608A3E036F622E02636
:10151300F008A3E036F008A3E036F008A3E036F0C5
:1015230022C3E697F60809E697F60809E697F60850
:1015330009E697F622C3E096F008A3E096F008A325
:10154300E096F008A3E096F022E657F60809E6577E
:10155300F60809E657F60809E657F622E056F608B4
:10156300A3E056F608A3E056F608A3E056F622E0F9
:1015730056F008A3E056F008A3E056F008A3E0569F
:10158300F022E0F608A3E0F608A3E0F608A3E0F6ED
:1015930022E6F008A3E6F008A3E6F008A3E6F022AB
:1015A300E0FAA3E0FBA3E0FCA3E0FD22EAF0A3EB57
:1015B300F0A3ECF0A3EDF022E0F8A3E0F9A3E0FA46
:1015C300A3E0FB22E8F0A3E9F0A3EAF0A3EBF02207
:1015D300CAC0E0E6F0A308DAFAD0E0FA22CAC0E013
:1015E300E0A3C582CCC582C583CDC583F0A3C582E4
:1015F300CCC582C583CDC583DAE6D0E0CA22C3E475
:1016030098F8E499F91216428026C3E49AFAE49B07
:10161300FBE920E7E9121642E498F8E499F922C3BA
:10162300E498F8E499F9121642E498F8E499F9C3B6
:10163300E49AFAE49BFB22EB20E7CFE920E7E0B949
:101643000010BB0008E88AF084F8AAF022E4FBC883
:10165300FA22EB70227B10C833C8C933C933500751
:10166300C39AC3DBF280069A50012ADBEAC833F43B
:10167300C8C933F4C9FA2275F008E4C833C8C933BA
:10168300C933C99AC99B5004C92AC93BD5F0ECFB9D
:10169300C833F4C8E4C9FA22600D08C6A2E713C62A
:1016A30018C613C6D5E0F322600C08C6C313C618C8
:1016B300C613C6D5E0F422700422600D18C6C333E6
:1016C300C608C633C6D5E0F41822251810AF08F5AE
:1016D30018400C15198008F51840021519D2AF22CD
:1016E30000C0D0251810AF08F518500C0519800854
:1016F300F51850020519D2AFD0D0222518F5821063
:10170300AF08F518400C15198008F5184002151993
:10171300D2AF851983222518F582E43519F5832282
:101723002518F8E43519F9222518FAE43519FB22AE
:101733002518FCE43519FD22E4732518C582C0E0A1
:10174300E51934FFC583C0E0E518C3958224F8107A
:10175300AF088583198582188008858319858218C7
:10176300D2AFCEF0A3E520F0A37808E608F0A3DE1D
:10177300FAEFF0A3E58124FAF8E608F0A3E608F00F
:10178300A3E608F0A30808E608F0A3E608F0A3150B
:10179300811581D0E0FED0E0F8158115811581E82F
:1017A300C0E0EEC0E0222518C582C0E0E51934FF91
:1017B300C583C0E0E518C3958224F910AF0885837B
:1017C300198582188008858319858218D2AFCEF0D7
:1017D300A3E520F0A37808E608F0A3DEFAEFF0A370
:1017E300E58124FBF8E608F0A3E608F0A30808E681
:1017F30008F0A3E608F0A315811581D0E0FED0E040
:10180300F815811581E8C0E0EEC0E02285198385D3
:101813001882E0A3FEE0A3F5207808E0A3F608DF32
:10182300FAE0A3FFE0A3C0E0E0A3C0E0E0A3C0E0D0
:10183300E0A3C0E0E0A3C0E010AF08858218858371
:10184300198008858218858319D2AFD083D082028C
:101853000132851983851882E0A3FEE0A3F5207881
:1018630008E0A3F608DFFAE0A3FFE0A3C0E0E0A3EB
:10187300C0E0E0A3C0E0E0A3C0E010AF0885821899
:101883008583198008858218858319D2AFD083D0C8
:101893008222C0D02518C582C0E0E51934FFC58374
:1018A300C0E0E518C3958224F310AF08858319853A
:1018B30082188008858319858218D2AFC8F0A3E9FE
:1018C300F0A3EAF0A3EBF0A37908E709F0A3D8FAB1
:1018D300ECF0A3EDF0A3EEF0A3EFF0A3D0E0F0A3C0
:1018E300D0E0F0A3D0E0F0A3E520F0A3E5F0F0A36F
:1018F30022851983851882E0C0E0A3E0F9A3E0FA0A
:10190300A3E0FBA37808E0F608A3DFFAE0FCA3E07A
:10191300FDA3E0FEA3E0FFA3E0C0E0A3E0C0E0A3DB
:10192300E0F5D0A3E0F520A3E0A3F5F010AF088520
:1019330083198582188008858319858218D2AFD0D0
:1019430082D083D0E0F8D0E0327404800674028041
:10195300027401C0E0F4041216FED0E01215D32283
:101963007404800474028000CCC0E0EDC0E0E5188C
:10197300C39CCCAD1950011D10AF068C188D198076
:10198300068C188D19D2AF1215E0D0E0FDD0E0FC23
:1019930022D083D082E9C0E0E493A3C386F0C5F0EC
:1019A30095F0F908E493A386F0C5F095F0700BE485
:1019B30093A3C3994005E9048002A3E475F002A44C
:1019C3002582F582E5F03583F583D0E0F9E493A32E
:1019D300C0E0E493C0E022D083D082ECC0E0EDC04D
:1019E300E0E493A3FCE493A3FDED4C600D121A26EF
:1019F300EC24FFFCED34FFFD80EFE493A3FCE493C0
:101A0300A3FDED4C600D121A65EC24FFFCED34FFD1
:101A1300FD80EFD0E0FDD0E0FCE493A3C0E0E493CD
:101A2300C0E022C0E0C3E493960874019396184083
:101A33000FE49366700808740193661870007019B8
:101A4300A3A3C3E49396087401939618A3A3400D2C
:101A5300D0E0D0E0D0E0021A16A3A3A3A3A3A3D09F
:101A6300E022C0E0C0F088F0E493667008087401D7
:101A73009366187000A8F0A3A3700BD0F0D0E0D049
:101A8300E0D0E0021A16A3A3D0F0D0E02274F5123E
:101A930017A9EAFEEBFFEE2434F8EF3400F98808C7
:101AA3008909EE2435F582EF3400F583E0F8EE245E
:101AB30037F582EF3400F583E0F50AEC850AF0A4EC
:101AC300FCAAF0850AF0EDA42AFDE82CF8E43DF920
:101AD3007A257B00121642EA850882850983F0F88D
:101AE300740758F97401B900028004C333D9FCFAAE
:101AF300E8131313541FF8EE28F8EF3400F9E82421
:101B03005DF582E93400F583E05A6008EE2434F58C
:101B130082EF802CEE2434F582EF3400F583E0C0AD
:101B2300E0EE2436F582EF3400F583E0F5F0D0E003
:101B330084A8F0EE28F8EF3400F9E82438F582E9B8
:101B43003400F583E0F97F0402185574F51217A9E0
:101B5300EAFEEBFFEE2434F582EF3400F583E0C0B8
:101B6300E0EE2435F582EF3400F583D0E0F08E8289
:101B73008F83A3A3A3A3A3A3A3C082C0838E828FB7
:101B830083A3A3A3A3A3E0F8A3E0F9D083D082E0C7
:101B9300C398F508A3E099F509EE247FF582EF34A5
:101BA30000F583E064017069EE2480F582EF340070
:101BB300F583E0F8A3E0F98E828F83A3A3A3A3A305
:101BC300A3A3E0FCA3E0FD8E828F83A3A3A3A3A31F
:101BD300E0FAA3E0FBC3EA9CEB9D5010C3EC98ED45
:101BE30099402EC3EA98EB995027800EC3EA98EBED
:101BF300994007C3EC98ED9940177CDC7D04EEFA1D
:101C0300EFFB120B7EEE247FF582EF3400F583E4C5
:101C1300F0EE2434F8EF3400F9E8FCE9FDEE243566
:101C2300F582EF3400F583E0F8EE2437F582EF34E4
:101C330000F583E0F50AE508850AF0A4F508AAF0A3
:101C4300850AF0E509A42AF509E82508F8E4350929
:101C5300F97A257B00121642EA8C828D83F0F874A0
:101C63000758F97401B900028004C333D9FCFAE8B8
:101C7300131313541FF8EE28F8EF3400F9E8245D2A
:101C8300F582E93400F583E05A6008EE2434F582E6
:101C9300EF802CEE2434F582EF3400F583E0C0E0CE
:101CA300EE2436F582EF3400F583E0F5F0D0E084DE
:101CB300A8F0EE28F8EF3400F9E82438F582E93487
:101CC30000F583E0F91228CB021B49C082C083854B
:101CD3001882851983E0F8A3E0F9C3EA9CEB9D50D1
:101CE30010C3EC98ED99401BC3EA98EB995014800C
:101CF3000EC3EA98EB994007C3EC98ED9940047939
:101D03000180027900D083D08222EAC39CFAEB9D42
:101D1300FB2274EF1217A99003A2E064086005E0A8
:101D23006407702A9061C8E060249003D0E0F460F7
:101D33001DE0F875F003A4C8AAF02AF974D228FEAE
:101D4300740339FF8E828F83A3A3A3E07003021E63
:101D530045906060E0C0E0EE2468F582EF3400F562
:101D630083D0E0F0750C45750D0575080075090005
:101D7300E5D914F50AE5D95403F50E601774036524
:101D83000E605CE50A6010EE2467F582EF3400F51F
:101D930083E07003021E2A900540E06401602AEE8E
:101DA3002482F582EF3400F583E060047804800236
:101DB3007800850A08E508C398FA95E0FB120A46FD
:101DC3008A088B09EA45097005120D828074EE2496
:101DD30082F582EF3400F583E070048A0C8B0DE505
:101DE3000A6012850C82850D83F50BE5D9F0A315E6
:101DF3000BE50B70F6EE2482F582EF3400F583E0F9
:101E0300604474FC250AF50A780C121950AC0AA92F
:101E13000EEEFAEFFB120C1A74021216E3E97026A7
:101E2300AA08AB0912126E793D8E828F83A3A3A3F6
:101E3300A3E0FA7B0012091AEEFAEFFB120B9612DB
:101E43000C2C790080747403650E6056850A107536
:101E530011007810121950AC0CAD0DAA08AB091281
:101E63000BF674021216E3EE2468F582EF3400F5E4
:101E730083E064807004747F8001E0F50C780C12B9
:101E83001954E50EF50C780C121954A90AAC08ADD7
:101E9300099003D0E0FA7B001208DE74021216E305
:101EA30080139003A2E06408600BAC0CAD0DEEFA56
:101EB300EFFB120C86120D8E79017F0A02185574FE
:101EC300F51217A974FC1216CDEAFEEBFF8908A2DE
:101ED300AFE433F509C2AF806AEE2463F8EF340050
:101EE300F97A007B00A2AFE433F50AC2AF88828996
:101EF30083E0FCA3E0FDEC4D603A88828983E0FA3D
:101F0300A3E0FB8A828B83E0FCA3E0FD88828983C4
:101F1300ECF0A3EDF08A828B83E4F0A3F08882894E
:101F230083E0FCA3E0FDEC4D700A88828983A3A3C0
:101F3300E4F0A3F0E50AA2E092AF12126E9004E37C
:101F4300E004F0EE2463F582EF3400F583E0F8A3B8
:101F5300E0F9E849603DEE2463F582EF3400F58350
:101F6300E02402FAA3E03400FBEA2402F50AEB348E
:101F730000F50B780A1219508A828B83E0FCA3E0E8
:101F8300F9EEFAEFFB120BBA74021216E3E97003CF
:101F9300021EDC9004E3E060639004E4E0F8900444
:101FA300E3E0C398500C7402650870509004E5E0B8
:101FB300604A8E828F83A3A3A3A3E0851882851929
:101FC30083F0A3E4F09004E3E0F87402121719E835
:101FD300F0A3E4F09004E3E0F89004E2E028F07466
:101FE30002121719AC82AD83851882851983AA82E0
:101FF300AB8379011208EA9004E3E4F0E509A2E077
:1020030092AF74041216E3021B4900000085218776
:102013008522C622C0E0C0D0E8C0E0E9C0E0EAC043
:10202300E0EBC0E0ECC0E0EDC0E0EEC0E0C008C013
:1020330009C00AC00BC082C083C0F0A2AFE433FE64
:10204300C2AF759B00906182E0A2E05012E591A2BD
:10205300E0500C7591FE740165217003121D15E0AB
:10206300A2E55051E591A2E5504B7591DF9003A293
:10207300E064076005E0640870237401652170352E
:1020830079019003D0E0FA75F003A4CAA8F028FB05
:1020930074D22AFA74033BFB121EC28018E0640D4B
:1020A30070139003C4E004F064287002E4F07A0033
:1020B300E0F9120D94906182E0A2E6400302215EF2
:1020C300E591A2E6400302215E7591BF9003A2E071
:1020D30064057008120CBC120CC88003120CC27584
:1020E3002100120D22E99003A3F07900120D1612BC
:1020F3000AF47A017B009003A1E0F91210049078AE
:1021030003E064427055900544E014F0704DC2AF93
:1021130012211600782AD0E0F618D0E0F6E59F5495
:102123000770057509FF800375097FC4C0E078292E
:10213300E6F50808E65509F509740B78081216AB9D
:10214300D0E02508F8906270E0A2E740F8E8C333D6
:10215300906272F0906270E0D2E0F0906181E0A250
:10216300E35009E5E9A2E3500375E9F7A3E0A2E729
:102173005009E591A2E7500375917FEEA2E092AF7B
:10218300D0F0D083D082D00BD00AD009D008D0E0D1
:10219300FED0E0FDD0E0FCD0E0FBD0E0FAD0E0F9E7
:1021A300D0E0F8D0D0D0E032C0E0C0D0C082C0834D
:1021B300906183E0A2E05009E5BFA2E0500375BF40
:1021C300FEE0A2E15009E5BFA2E1500375BFFDE0C7
:1021D300A2E25009E5BFA2E2500375BFFBE0A2E310
:1021E3005009E5BFA2E3500375BFF7E0A2E450092D
:1021F300E5BFA2E4500375BFEFE0A2E55009E5BFD8
:10220300A2E5500375BFDFE0A2E65009E5BFA2E6F1
:10221300500375BFBFD083D0828088C0E0C0D0E8B0
:10222300C0E0E9C0E0EAC0E0EBC0E0ECC0E0EDC034
:10223300E0C0F0E5A7A2E6500FE5A1A2E6500953DE
:10224300A7BF75A1BF122283E5A7A2E5500CE5A1A4
:10225300A2E5500653A7DF75A1DFE5A7A2E1500968
:10226300E5A1A2E1500375A1FDE5A7A2E2500CE5AB
:10227300A1A2E2500653A7FB75A1FBD0F002219463
:1022830074F81217A97521019003A2E06406701572
:10229300120C4A8A828B83A3A3A3A3A3A3E0FAA36A
:1022A300E0FB120CAAA2AFE433FED2AF9003A8E086
:1022B300640170187A207B009003A1E0F912108E5C
:1022C3007A207B009003A1E0F912100A906182E06A
:1022D300D2E6F0900541E0602185C6228016900386
:1022E300A7E064017008E5C654F84405F5C653BE7B
:1022F300FC1220107401652160E4EEA2E092AF7F2E
:1023030001021855008E238F248582288583278513
:102313001882851983E0CEA3E0CF852882852783A1
:10232300EBC9EAC8EDCBECCA75F010C3E833C8E9D2
:1023330033C9EA33CAEB33CBC3EA9EF526EB9FF5E9
:1023430025B35004AB25AA26EC33CCED33CDD5F021
:10235300DAAE23AF242274E91217A974F81216CD4A
:10236300851882851983ECF0A3EDF08A088B099018
:1023730003A2E024F7C3940550067508010224F074
:10238300120C4A8A0A8B0BAE0AAF0BEE4F70030294
:1023930024EDAC08AD097402121719AA82AB83129B
:1023A3000CDA8E828F83A3A3750CFF750DFF750E58
:1023B300FF750F00780C12155F7402121719751050
:1023C300FF7511FF7512FF751300781012155F78F2
:1023D3000C7910121385502A780C79101215247574
:1023E30008017509C8750A00750B007808790C1285
:1023F30013855052850C08850D09850E0A850F0B30
:1024030080507514017515C8751600751700851071
:102413000885110985120A85130B7808790C1215A2
:102423002478147908121385401C75080075090077
:10243300750A00750B01780879101215247808794C
:102443000C1214EB800C750801750900750A0075F0
:102453000B00740978081214CC750C19F50DF50EE0
:10246300F50F7808790C1214448E828F83A3A3A3EB
:10247300A3A3A3E0F8A3E0F97AD07B031216428862
:102483000C890DE4F50EF50F7808790C1214EB7432
:1024930006121719E0F8A3E0F97AD07B031216426B
:1024A300E8FA8A0CE4F50D7808790C1213855007C5
:1024B3007808790C1215249003A2E06408600AE0FE
:1024C30064066005E06405702D750C0D780C7908C1
:1024D3001213854021750CF4750DFF750EFF750FF2
:1024E300FF7808790C1214EB800C7508007509004D
:1024F300750A00750B00851882851983E0F8A3E03F
:10250300F5838882780812159474081216E37F10F5
:1025130002185574F71217A9120CEC90053FE064EA
:10252300017010906245E4F0A3F053F4F343FE0C02
:102533005390F3120C98E5C654804449F5C6E59EC2
:10254300547F644970F8906185740FF090053DE005
:10255300F47002A3E0604E90053EE0600814601B37
:1025630014602E804075080175090090053DE078E0
:10257300081216BAE508F45280802A750801750915
:102583000090053DE078081216BAE508F4529080F1
:102593001475080175090090053DE078081216BA14
:1025A300E508F452A079007F0202185574F7121758
:1025B300A9E9FEEAFF74016E700C7A807B00900338
:1025C300A1E0F912100490294CE493F46008E49319
:1025D300F9120AE8800953C680E59E547F70FA1207
:1025E3000C9E90053FE064017003120B0090053DC3
:1025F300E0F47002A3E0604B90053EE060081460D5
:102603001A14602C803D75080175090090053DE0A2
:1026130078081216BAE50842808028750801750902
:102623000090053DE078081216BAE5084290801341
:1026330075080175090090053DE078081216BAE5A2
:102643000842A0120CEC120C4A8A088B09A808A9AC
:1026530009E8496015E5E170FCE82414F582E934E2
:1026630000F583E0F46003E0F5E174016F700A7A2A
:10267300019003A1E0F912105E0225AA74ED12176E
:10268300A98A088B098C0A8D0B7413121719780CFD
:102693001215857808790C1213857510017511C808
:1026A30075120075130050127808790C12152478EE
:1026B30010790812138550168010780C79081215BA
:1026C300247810790C121385400479018002790073
:1026D3007F0C02185574ED1217A98A088B098C0A0E
:1026E3008D0B7413121719780C121585780C790851
:1026F30012138540117808790C121524AA08AB0926
:10270300AC0AAD0B802275100075110075120075AF
:1027130013017810790C121524781079081214EB30
:10272300AA10AB11AC12AD1380A68A828B837508F5
:10273300FF7509FF750AFF750B0078081215727F84
:102743000402185574F51217A98C828D8378081228
:1027530015858A828B837808121538EA2404F8EBEE
:102763003400F98C828D83A3A3A3A3E0FCA3E0FD33
:1027730088828983C3E09CF0A3E09DF088828983EB
:10278300C3E09420A3E0944E40268A828B8375088D
:10279300FF7509FF750AFF750BFF78081215118A7B
:1027A300828B83A3A3A3A3E02420F0A3E0344EF001
:1027B30002272D74F51217A9E9FE9004F7E0FAA396
:1027C300E0FBEEC333F8E433F9741228F582748125
:1027D30039F583E02AF508A3E03BF50978081219D7
:1027E300507A407B427C0F7D00122308740212163C
:1027F300E38A088B098C0A8D0B741078081214B3C2
:10280300AA08AB097F0402185574F11217A98A0CA0
:102813008B0D8C0E8D0F740F121719E0FAA3E0FBCA
:102823007411121719E0F508A3E0F50978081219D5
:1028330050EA2401F508EB3400F509E4F50AF50B39
:10284300780C79081213C4750871750902780C792C
:10285300081213C4AA0CAB0DAC0EAD0F12230874EF
:10286300021216E38B09EA450960047A0180027AB1
:1028730000EC2AFCED3400FD7413121719E0F8A3E1
:10288300E0F9E8FEE9FFECF8EDF97A717B02121644
:1028930042880889098E828F837808121594ECF890
:1028A300EDF97A717B021216428A088B0974057856
:1028B300081216BA8E828F83A3A3A3A3E508F0A3FD
:1028C300E509F07F08021855C082C083E9906000D3
:1028D300F0D083D08222C2AF02000022C0E074F2A3
:1028E300121895A2AFE433FED2AFE589A2E15003FB
:1028F3001211DE758900C2C5751A00EEA2E092AF0F
:102903007F010218F4C0E074F2121895A2AFE43309
:10291300FED2AFE58BA2E050031211DE758B00C22D
:10292300E880D5C0E0C0D0E8C0E0E9C0E0E5A8D2C7
:10293300AFC2C7751A00A2E7A2E792AFD0E0F9D001
:07294300E0F8D0D0D0E03233
:10294C00FFFFFFFFFFFFFFFFC082C083E99009E795
:10295C00F0022BE374F712173DE99002E1F07C19B9
:10296C007D037AFF7BFF1208309002E274FFF0A324
:10297C00F0A3E4F0A3F079051207B89002E1E0F9B6
:10298C001206DA7A4E7B081209F87F0102180F74CE
:10299C00F412173D8A088B09EB548060309002E1E9
:1029AC00E0F9120FEC8A0A8B0BAE0AAF0BEE4F60FC
:1029BC00138E828F83E064B070031207D0EEFAEFAF
:1029CC00FB120FDAAA08E5096480FB80047A007B0D
:1029DC0000022BB274F212173D74FC1216CDEAFEF3
:1029EC00EBFFEE4F60387402121719EEF0A3EF12E2
:1029FC002E17ECF0A3ED122E17AA82AB831206D47D
:102A0C00E9F508707374121217191239CBE50A45DF
:102A1C000B60658E828F83122A8EEE4F70057508BF
:102A2C000280557A067B001210468A0C8B0DA80C7E
:102A3C00A90DE8497005750813803D88828983E4E7
:102A4C00122A98A3A3EEF0A3EF123E64E50AF0A3BA
:102A5C00E50BF09002E7122B209002E76017E0FCE8
:102A6C00A3E08003EAFCEBFD8C828D83122B20709B
:102A7C00F38C828D831238F0A90874041216E302C9
:102A8C004066A3A3A3A3E0FEA3E0FF22F0A3F0887B
:102A9C008289832274F212173D890AE975F017A412
:102AAC00FEAFF09002E6E4F09002E4122B20600AF4
:102ABC0012104C9002E4E4F0A3F0EEFAEFFB1210CB
:102ACC00468A088B09EA4509602FEEFCEFFD790078
:102ADC00120FC29002E4E508F0A3E509F07B008038
:102AEC0008122B0AE4F0A3F00BEBC3950A40F2E5B5
:102AFC000A9002E6F0790080027913024066EB75C9
:102B0C00F017A4F8A9F09002E4E028FAA3E0398ABF
:102B1C0082F58322123686EA4B2274F412173D7525
:102B2C000800750900740C121719123E38FEE9FFE3
:102B3C00800CE5082401F508E5093400F509C3E526
:102B4C00089CE5099D503285080A85090B740378A9
:102B5C000A1216BAEA250AF8EB350BF98882898332
:102B6C00A3A3A3A3A3A31239CBEE650A7003EF654D
:102B7C000B70BFE8FAE9FB80047A007B00802774B5
:102B8C00F412173D7900EAA2E0501B7508EE7509A6
:102B9C008178081219507C047D007AE97B091207B0
:102BAC00B274021216E37F0402180FC082C0839025
:102BBC0002E7122BEA601C88828983A3A3E06A7067
:102BCC0003A3E06B8882898370E8A3A3A3A31236C6
:102BDC008280047A007B00D083D0820201321241C1
:102BEC0039E8492274EE12173D74FC1216CDEAFE38
:102BFC00EBFF851882851983E4F0A3F0EE24021212
:102C0C0038D4EE2405122E05EE2404F50EEF123105
:102C1C00EAE024FE603924FC604624FE605224FE67
:102C2C00605E24FE7003022D0A24FE7003022D82C6
:102C3C0024FE7003022D9124FE7003022DA024FCAF
:102C4C007003022DAF24FE7003022DBE022DFB90EB
:102C5C0003007417F0A3E4122E1F120452022DFB72
:102C6C00851882851983AC82AD831207D6022DCBD1
:102C7C00851882851983AC82AD831207DC022DCBBB
:102C8C00850C08850D097402121719AC82AD838569
:102C9C0008828509831236821206F88A0C8B0DACD9
:102CAC000CAD0DEC4D6042E4F50CF50D780C1219E1
:102CBC0050750C00750D03780C121950750C0175BC
:102CCC000D03780C12195074081217191219677920
:102CDC001612367C12081874081216E3E9F50C70FB
:102CEC000B12367812046A800F750C0185088285E8
:102CFC000983122E0D1238F0850C08022DCE7402A9
:102D0C00121719AC82AD83850C82850D8312368225
:102D1C001206F88A108B11AC10AD11EC4D60438586
:102D2C000C82850D83A3A31219677510007511030E
:102D3C007810121950751001751103781012195072
:102D4C007408121719121967791612367C120818A2
:102D5C0074081216E3E9F509700B12367812047038
:102D6C00800F750901850C82850D83122E0D12388A
:102D7C00F0850908804C851882851983AC82AD8357
:102D8C001207E2803A851882851983AC82AD8312D2
:102D9C0007E8802B851882851983AC82AD831207D6
:102DAC00EE801C851882851983AC82AD831207F4E2
:102DBC00800D851882851983AC82AD831207FAE9E0
:102DCC00F508E50860298E828F83A3E06414601FE8
:102DDC00850E82850F83E0900300122E1712413569
:102DEC009003011238F0E508A3122E1F12044CEECA
:102DFC00FAEFFB1207760237DCF50CEF3400F50D19
:102E0C002212413985188285198322F08518828512
:102E1C00198322F07C007D03850A82850B83123690
:102E2C00862274EE12173D74FC1216CD8A0A8B0B97
:102E3C008C0E8D0FEA2405F508EB3400F5097C1592
:102E4C007D0079007A007B03120FC2E5082402F59D
:102E5C000CE509122E088518828519838582108548
:102E6C0083117810121950850882850983A3A3A3B6
:102E7C00A3123332121950E5082405F510E5093474
:102E8C0000F5117810121950850C82850D831236BD
:102E9C008C1206F274061216E38A108B11AE10AF68
:102EAC0011E50A2402F50AE50B1238D7EE4F700330
:102EBC00022FF48017740212171912368288828935
:102ECC0083EAF0A3EBF0900300E004F0900300E041
:102EDC00C394054003022FF4E4F510F51178101299
:102EEC0019507510E975110278101219507510EA05
:102EFC0075110278101219507406121719121967ED
:102F0C007910EEFCEFFD12367C12081874081216BC
:102F1C00E3E9705E850882850983A3A3A3A3A3A319
:102F2C00A3E0F89002E9E0687048123332121950AD
:102F3C007CEA7D02E5082408FAE5093400FB120F4F
:102F4C00BC74021216E3E960298E828F83A3A3A3BB
:102F5C00A3123682900300E0F5107402781012165A
:102F6C00BA74012510F58274033511F583EAF0A3C8
:102F7C00EBF07402121719858210858311781012E8
:102F8C0019507402121719121967850C82850D835A
:102F9C0012414A1206FE74041216E38A108B11AE0B
:102FAC0010AF11900300E0F5107511007402781049
:102FBC001216BA74002510F874033511F988828939
:102FCC0083A3122B207003022EB8E82403F8E934F3
:102FDC0000F9EE4F6003022EC18882898374FFF0E2
:102FEC00A3F0900300E004F0900300E0600A1236B6
:102FFC007812045E7900800B85088285098312386B
:10300C00E7790A0237DC74EA12173D74FE1216CD0A
:10301C008C128D13EA2405F50CEB1242B4122A9291
:10302C00750800750900EA2402F510EB3400F5115F
:10303C0085188285198385820A85830B780A121973
:10304C0050850C82850D83A3A3A3A31231F412190E
:10305C0050E50C2405F50AE50D1238D7780A12193B
:10306C0050850C82850D831241481206F2740612AB
:10307C0016E38A0A8B0BEA450B70030231A5EA248E
:10308C0004F50EEB1231EA122A928A828B83A3A3E7
:10309C00A3E0F98510828511831236821206E0E9CD
:1030AC00F50960030231A5E4F514F515781412192D
:1030BC00507514E975150278141219507514EA75C7
:1030CC00150278141219507406121719121967790F
:1030DC0013AC0AAD0B85108285118312368212084F
:1030EC001874081216E3E9F50960030231A5900281
:1030FC00E9E0F8E5087009E02402900301F080177C
:10310C00900301E0FCE82402FAE43400FBEA6C7062
:10311C0001EB60030231A9850882AA82123329943B
:10312C00141233215073850E82850F83E0C0E07436
:10313C00022A1231E1D0E0F00508850E82850F835A
:10314C00A3E0C0E085080A7402250A1231E1D0E040
:10315C00F005089002E91231F41219507CEA7D0254
:10316C0085080A7402250AFA74033400FB120FAAAC
:10317C0074021216E39002E9E02508F50874FF6E5C
:10318C00700374FF6F6012EE24010EEF3400FFE544
:10319C0008C39414500302303CE508601312356DDB
:1031AC008510828511831236821204647900801492
:1031BC00E509700375090A851282851383EEF0A365
:1031CC00EFF0A90974021216E37F0E02180F85089E
:1031DC000C7402250CF58274033400F58322340040
:1031EC00F50F850E82F58322123E772274EE1217AC
:1031FC003D74FE1216CD8C0E8D0FEA2405F50CEBEA
:10320C00122E08750B00900300E4F0F50AEA240274
:10321C00F508EB3400F5098049900300E0FA9002C0
:10322C00E9E0F81233299417123321400D90030072
:10323C00E0F87416C3989002E9F012333212195068
:10324C007CEA7D0274012AFA74033400FB120FAA83
:10325C0074021216E39002E9E0F8900300E028F003
:10326C00050AE50C2416F582E50D1231E5E0F8E5CA
:10327C000AC398400302330A900300E0C39416502B
:10328C007DE50AC333F8E433F9E50C28FEE50D3986
:10329C00FF851882851983AC82AD838E828F831251
:1032AC0036821206F88A108B11AC10AD11EC4D70F1
:1032BC0005750B018043E4F510F5117810121950C7
:1032CC007510E975110278101219507510EA751104
:1032DC000278101219507406121719121967791600
:1032EC008508828509831236821208187408121612
:1032FC00E3E9F50B70030232251238E380107C00F1
:10330C007D03850882850983123682120476A90B07
:10331C0074020237DEE99400C365D03322EA28F840
:10332C00E43400F9E822E0F51075110078102274ED
:10333C00EA12173D74FC1216CD8A0C8B0D8C128D73
:10334C0013EA2405F50AEB1238D775080075090045
:10335C00E50A2402F510E50B3400F511740212177E
:10336C001985820E85830F780E121950850A828575
:10337C000B83A3A3A3A3123E23121950E50A240521
:10338C00F50EE50B3400F50F780E121950851082EE
:10339C008511831238DD12367C1206F27406121671
:1033AC00E38A0E8B0FAE0EAF0FE50C2402F50EE583
:1033BC000D3400F50F80408882898374FFF0050876
:1033CC001231DA74FFF005089002E9E0F50C750D86
:1033DC0000780C1219507CEA7D0285080C740225C9
:1033EC000CFA74033400FB120FAA74021216E39049
:1033FC0002E9E02508F508EE4F60718E828F83A3F9
:10340C00A3A3E0F9850E82850F831236821206E0A3
:10341C00E9F509EE2404122E05E97044E4F514F5DF
:10342C001578141219507514E975150278141219BF
:10343C00507514EA75150278141219507408121785
:10344C00191219677911EEFCEFFD850E82850F8339
:10345C0012368212081874081216E3E9F50960276F
:10346C00850C82850D831235631238F0E5087003E4
:10347C0002354912356D850E82850F831236821204
:10348C00047C790002355E850882AA82EA9002E902
:10349C007009E02404900301F08022E0F89003010D
:1034AC00E0F514E82404FCE43400FDEC6514700130
:1034BC00ED70C0123329941212332150B6850C8250
:1034CC00850D83E0C0E074022A1231E1D0E0F005F2
:1034DC0008850C82850D83A3E0C0E01231DAD0E0C0
:1034EC0012357F85820C85830D780C12195074046B
:1034FC0012171912196785108285118312414A120D
:10350C0006FE74041216E38A0C8B0DAE0CAF0D85FF
:10351C00080C7402250CF874033400F9EE4F700398
:10352C000233C3851882851983E08882898312351A
:10353C007FA3E0C0E01231DAD0E00233D1E50970AC
:10354C000375090A850A82850B831235631238F0DC
:10355C00A90974040231D212413985128285138370
:10356C0022900301E0F5F0E50884900300F07C0064
:10357C007D0322F005088518828519832274EC12CC
:10358C00173D74FE1216CD8A088B098C0E8D0FEA2E
:10359C002405FEEB3400FF851882851983AC82ADBF
:1035AC00838E828F831236821206F88A0A8B0BEE78
:1035BC002418122E05EA450B70030236531237C538
:1035CC00503285188285198312368212080C8A10A3
:1035DC008B11EA4511606B7912AC0AAD0B85088230
:1035EC0085098312368285108285118312173BE977
:1035FC00F50A7058E4F50AF50B780A1219508E8208
:10360C008F83A3A3E0F50A780A121950EE24031253
:10361C0038D4780A1219508E828F8312368C120885
:10362C001E74061216E3E9F50A7021850C82850DCD
:10363C0083E0701F8508828509831236821204820A
:10364C008011750A0E8009750A018004E50A600371
:10365C001238E3850C82850D83E0600479008002CA
:10366C00A90A74021216E37F0C02180F7C007D036A
:10367C00850A82850B8312368622E0FAA3E0FB22B0
:10368C00E0FCA3E0FD85088285098312368622744E
:10369C00EE12173D74FE1216CD8A088B098C0C8D18
:1036AC000DEA2405FEEB3400FF750E0085188285AB
:1036BC001983AC82AD838E828F831236821206F808
:1036CC008A0A8B0BEA450B70030237B11237C550CF
:1036DC003585188285198312368212080C8A0E8B56
:1036EC000FEA450F605E7912AC0AAD0B8508828536
:1036FC000983123682850E82850F8312173BE9F5FA
:10370C000E60030237B48508828509831239CBAA6F
:10371C000AFB1208008A108B11A810A911E8497035
:10372C001E7AFF7BFF1208008A108B11A810A911BA
:10373C00E849606C88828983E50AF0A3E50BF07593
:10374C000A008007750E0E805F050A9002E6E0FA0B
:10375C00E50AC39A504AE50A75F017A4FAABF0884B
:10376C00828983A3A3E02AFAA3E03BFB8A828B83A2
:10377C001238DDEC4D70D2750A17750B00780A12F1
:10378C001950EEFCEFFD120FAA74021216E3EEFCB8
:10379C00EFFD850882850983123682120488801415
:1037AC00750E098003750E01124131850C82850D51
:1037BC00831238F0A90E02331CE5082402F508E543
:1037CC00093400F5098A828B83A3A3A3E0A2E52226
:1037DC0074041216E37F0A02180F74EC12173D8C56
:1037EC00108D11EA2405F50CEB122E08750F00EA6A
:1037FC002402F50AEB1238D7850A82F58312368239
:10380C001208008A088B09EA450970030238C97549
:10381C000E008071850C82850D83E06401704F8EE3
:10382C00828F83A3A31219678E828F83A3A3A3A372
:10383C00E0F5127513007812121950EE2405F512EA
:10384C00EF3400F513781212195012367C12081E40
:10385C0074061216E3E9F50F6014850C82850D834E
:10386C00E4F01241318510828511831238F07C17F7
:10387C007D007900EEFAEFFB120FC28E828F83E48B
:10388C00F0A3F0050E9002E6E0F8E50EC398501E8A
:10389C00E50E75F017A4F8A9F0850882850983A3B5
:1038AC00A31242BE1238DDEC4D60030238208508AD
:1038BC008285098374FFF0A3F0E50F700612367C45
:1038CC0012048EA90F023673F50AEF3400F50B22A1
:1038DC00A3E0FCA3E0FD228E828F83124139850E7A
:1038EC0082850F83E8F0A3E9F022C082C0839002A6
:1038FC00E2E06A7003A3E06B70067AE27B0280045C
:10390C007A007B00022BE3C082C08378008C828D0E
:10391C0083E06A7003A3E06B7010E875F003A4F801
:10392C00A9F0EC28FAED39FB8015088C828D83A365
:10393C00A3A3E06A7003A3E06B60DF7A007B000254
:10394C002BE374F612173D1207CA8A828B83E58229
:10395C00458370067A007B008007A3A3A3A31236CD
:10396C0082023FE274F212173DE9FE740E1217192F
:10397C001239CB7410121719123E438C828D83E0CE
:10398C0064027036A312413FF50CA3E0F9A80C7445
:10399C00026870037429697021750C02750D00782A
:1039AC000C1219507808121950780A121950EEF9A5
:1039BC0012084274061216E380027901024066E096
:1039CC00F50AA3E0F50B2274E812173D74FB1216EE
:1039DC00CDE9851882851983F08A168B17ECFEEDDC
:1039EC00FF751000741D121719124135741D121732
:1039FC00191238F08E828F83A3A3A3E0A2E4502D7A
:103A0C00741D12171912368212080C8A828B83E5E8
:103A1C008245837003023E14790AEEFCEFFDAA1670
:103A2C00AB1712173BE9F5106003023E17741F1217
:103A3C001719123E4374211217191239CB74231221
:103A4C001719E0F50EA3E0F50F8E828F83E0640268
:103A5C006003023DC2A3124135850882850983A308
:103A6C00858212858313EE2406122E0588828983A3
:103A7C00E0FAA3E0F9EA2400F514E439F51578141A
:103A8C001219DA010000280128B73A070002287C35
:103A9C003B0328E93A0029B33C0129DE3C02297F8B
:103AAC003C0329B33C04295D3DC23DE50E450F6046
:103ABC0003023DBD850C82850D83123E38FAE9FB6D
:103ACC008A828B83E0850A82850B83123E6E1219E3
:103ADC00508A828B83A3E0FCA3E0023D47E50E45B0
:103AEC000F6003023DBD850A82850B837401F012C1
:103AFC003E4B850882850983F07C007D008E828F89
:103B0C0083A3A3A3A3E02401FAA3E03400FB1206D1
:103B1C00F8EA4B60418A828B83E02402F8850A82A2
:103B2C00850B83E028F0EA2404F8EB3400F9888252
:103B3C008983E0851282851383123E80123E6E12B9
:103B4C0019508A828B831238DCE5082403FAE509C4
:103B5C003400FB023D4C850A82850B83E02404F083
:103B6C007C047D007900AA12AB13120FC2023E171F
:103B7C00E50E450F6003023DBD123E4BFEA3E0FF78
:103B8C00850A82850B837404F0EE8508828509838F
:103B9C00F0EF851282851383F07403121719AC822F
:103BAC00AD83EEFAEFFB1206F88A0C8B0DEA450D8D
:103BBC007003023C608A828B83A3A3122A8E740149
:103BCC0012171985820E85830F780E121950740501
:103BDC001217191219677CFF7DFF1206FE7404126E
:103BEC0016E38B0FEA450F7033850C82850D83121B
:103BFC003E23121950850C82850D83A31219677C04
:103C0C00027D007A647B8212052A74041216E3E9A1
:103C1C00700A740112171974FFF0A3F08E828F834F
:103C2C00E064027039750C02750D00780C12195095
:103C3C008E828F831238DCE5082404FAE5093400FF
:103C4C00FB120FAA74021216E3850A82850B83E01D
:103C5C00240280097401121719EEF0A3EFF074011D
:103C6C00121719123E34F07401121719A3123E2CBC
:103C7C00023DB7E50E450F6003023DBD850C828504
:103C8C000D831238DDAA16AB17120836850A828509
:103C9C000B837402F0EA850882850983F085128211
:103CAC00851383EB023DBAE50E450F6003023DBD63
:103CBC00123E4BF8A3E0F9850A82850B837402F05F
:103CCC00E8850882850983F0E985128285138302D1
:103CDC003DBA850C82850D83123682120FA4EAFC44
:103CEC008C82A882C3950EE4950F405FE8650E7038
:103CFC0002E50F70047C008022851882851983E010
:103D0C00FAE50E2AFAE50F3400FBC3EA98EB9400AF
:103D1C005003E08005E50ECCC39CFCEC850A828543
:103D2C000B83F08C0A750B00780A121950850C82E3
:103D3C00850D83E0250EFCA3E0350FFDAA08AB0929
:103D4C00120FAA74021216E3023E17751007023EF8
:103D5C0017E50E450F705A850C82850D831241357F
:103D6C00850A82850B837407122A9A123E2C122A1A
:103D7C009AA3E0851282851383F0E82402FAE934D1
:103D8C0000FB8A828B83123E2C123E5B123E34A3C4
:103D9C00123E64123E3DF0E82405F8E93400F9883F
:103DAC00828983123E3DA3123E80A3A3A3A3F0807D
:103DBC005A75100B8055741D121719123682120782
:103DCC00CA8A828B83E5824583603D124135880C1B
:103DDC00890DE8450D6031780E121950780A1219C8
:103DEC005078081219507406121719E0F9EEFCEF0E
:103DFC00FDAA16AB17850C82850D8312173B740632
:103E0C001216E3E9F510800375100EA91074051253
:103E1C0016E37F1002180FE0F50E750F00780E22D6
:103E2C00E085088285098322123E8A22124139E8F4
:103E3C0022123E8AA3A322E0F508A3E0F50922850D
:103E4C000C82850D83E0F8A3E0F5838882E022A341
:103E5C00A3F08A828B83A322F088828983A3A3A3F5
:103E6C00A322F08A828B83123E7722E0F50A750B2F
:103E7C0000780A22F088828983A3123E8A22E08588
:103E8C000882850983A3A32274EE12173D74FE12D7
:103E9C0016CD8A0A8B0BECFAEDFB7414121719E091
:103EAC00F510A3E0F5117416121719E0FE74181230
:103EBC001719E0F50EA3E0F50F851882851983AC70
:103ECC0082AD831206F88A0C8B0DEA450D6049858C
:103EDC0018828519831236821207CA8A828B83E56F
:103EEC00824583602FA3A3123E43E5084509602455
:103EFC00780E1219507810121950EEF9AC0CAD0D59
:103F0C00AA0AAB0B85088285098312173B7404122D
:103F1C0016E38006790E8002790102331C74F612C6
:103F2C00173D74FE1216CD740C121719123E3885FB
:103F3C001882851983F07401121719E9F0E4F50859
:103F4C00F50978081219507508027808121950747E
:103F5C0004121719858208858309780812195012E2
:103F6C00081E74061216E374021216E3806874F7C6
:103F7C0012173DEAFEEBFF89087C197D0312083607
:103F8C00EA5402600BA908EEFAEFFB1206EC800271
:103F9C00790102299674F612173D74FF6A70037446
:103FAC00FF6B70168C828D83123FE7E4F08C828D50
:103FBC0083A3A3A3123FE7A380181208068A088BD9
:103FCC0009A808A909E849600D8882898374FF1241
:103FDC002A98A3A3E4F07F0202180F74FFF0A3F059
:103FEC008C828D83A3A32274F612173D1208068AC5
:103FFC00828B83E58245836006A3A3E0FA80027A74
:10400C00007B0080D174F212173D8A088B09ECFEFC
:10401C00EDFF740E121719E0F50A1208068A0C8BC4
:10402C000DA80CA90DE8497026EEFCEFFD7AFF7B7C
:10403C00FF1208068A0C8B0DA80CA90DE849700418
:10404C007911801688828983E508F0A3E509F08848
:10405C00828983A3A3E50AF079007F0602180F7406
:10406C00EE12173DEAFEEBFF8C088D09890C7414D7
:10407C001217191241357416121719123682750D52
:10408C0000E84960030241297402650C6003024197
:10409C0024741212171912413FFCA3E0F9EC24000E
:1040AC00F50EE439F50FEAF4F8EBF4F9EC58F8E511
:1040BC000F59F9E849705CE5082406F8ED3400F96D
:1040CC00880A890B8882F58312414A1208368A10B5
:1040DC008B11E50E65107004E50F65116042780ECA
:1040EC00121950850A82850B8312414A12083C74BE
:1040FC00021216E3E9F50D7027780E121950850897
:10410C0082850983A3A31241481208547402121623
:10411C00E3800D750D808008750D0D8003750D0BFA
:10412C00A90D0237E18E828F8312413922E0F8A368
:10413C00E0F92212413988828983E022A3A3E0FCB2
:10414C00A3E0FDEEFAEFFB2274E812173D74E712C0
:10415C0016CD851882851983EAF0A3EBF08C168DA9
:10416C0017890E7508007509007431121719E0F5DE
:10417C0012A3E0F5137433121719E0F514A3E0F54C
:10418C00157435121719E0F50FE50975F003A4F84D
:10419C00A9F08518828519831242BEE0F47003A33E
:1041AC00E0F470030242A1EE2402F50CEF1242B4CB
:1041BC00E070030242A185160A85170B780A1219C2
:1041CC0050AC14AD15AA12AB131207BE7402121622
:1041DC00E38A0A8B0BEA450B70030242A1E4F5104B
:1041EC00F511781012195074061217198582108562
:1041FC0083117810121950740912171985821085C1
:10420C0083117810121950851282851383A3A3A3EE
:10421C00A31219677914AC0AAD0B8E828F831236F8
:10422C008212081874081216E3E97069850A8285EF
:10423C000B83A3A3A3A312413574021217191238CE
:10424C00F0850C82850D83E0A2E05018A90E740253
:10425C00121719AC82AD838E828F831236821207AD
:10426C0010E94208850C82850D83E0A2E15026E519
:10427C000FF50A780A121954A90E7403121719AC07
:10428C0082AD838E828F8312368212070A740112DA
:10429C0016E3E942080509E509C3940250030241FB
:1042AC0095A9087419023E1B3400F50D850C82F596
:1042BC008322E028FEA3E039FF8E828F832274F2E2
:1042CC0012173DEAFEEBFF890B7401650B600E744F
:1042DC0002650B706A7901120A16E97062EEFAEF48
:1042EC00FB1208008A088B09EA45096047750A0029
:1042FC00800B7C177D007900120FC2050A9002E634
:10430C00E0F8E50AC3985021E50A75F017A4F8A95E
:10431C00F0850882850983A3A3E028FAA3E039FB82
:10432C008A828B83122BEA70C98508828509837473
:10433C00FFF0A3F07C197D03EEFAEFFB12083002BC
:10434C00406674F212173D8A088B09ECFEEDFF747F
:10435C000E1217191239CB9009E7E0F4603D7A0977
:10436C007B00120FD4EA4B60328A828B8374B1F0DB
:10437C00A3E4123E5DA3123E5BA3E508F0A3E5099E
:10438C001243AAEEF0A3EF1243AAA3A3E50AF0A3EB
:10439C00E50BF09009E7E0F9120FE0024066F08AB5
:1043AC00828B83A3A3A3A3A322C082C0839061901A
:1043BC007404F0A37448F0A37402F090618074400C
:1043CC00F09061BC7403F09061877419F090626591
:1043DC00741BF0906249E0C3941390619C400A7482
:1043EC0009F090606674018007740DF0906066E4CB
:1043FC00F090619A7433F0A37455F09061A0743A04
:10440C00F090053FE064017009C2919003A67467B7
:10441C0080059003A67461F0902952E49390618614
:10442C00F090294CE493F46027E493540FF89061D6
:10443C0085E0686012E5C654804449F5C6E59E5493
:10444C007F644970F8E8F053C680E59E547F70FA9B
:10445C007905120D76024610C082C083E9540FF91B
:10446C00906185E0696012E5C654804449F5C6E563
:10447C009E547F644970F8E9F053C680E59E547FE2
:10448C0070FA024610C082C083E5A8F853A87E904B
:10449C006181E4F0A3F0A3F0C2BA539AFEC289750D
:1044AC009B00C2C275E90075910075BF0075A9111A
:1044BC0075B905906181F0A374C0F0A3E4F0D2BA91
:1044CC00439A0174805842A8024610C082C083747B
:1044DC00F81216CD9003A4E0F8A3E0F9E8497003B4
:1044EC000246059003A4E0544060237908851882A5
:1044FC00851983AA82AB83120BD885188285198300
:10450C00AA82AB831208C69003A4E054BFF0E05417
:10451C00806010790C7A657B05120BD89003A4E0AF
:10452C00547FF0E0A2E0503190619A7433F0A374A0
:10453C0055F09061A0743AF090053FE06401700969
:10454C00C2919003A6746780059003A67461F01263
:10455C0008CC9003A4E054FEF0E05402603190616A
:10456C009A743FF0A3745AF09061A0747FF0900598
:10457C003FE064017009D2919003A674718005909C
:10458C0003A6746AF01208CC9003A4E054FDF0E08A
:10459C0054046013902950E493906186F01208D271
:1045AC009003A4E054FBF0E054086013902951E40C
:1045BC0093906186F01208D29003A4E054F7F0E0D7
:1045CC0054106013902952E493906186F01208D233
:1045DC009003A4E054EFF0E05420600A1208D2904B
:1045EC0003A4E054DFF0A3E05401600D120B0012A1
:1045FC0008D89003A5E054FEF074081216E30246A6
:10460C0010F0A3F0D083D08202013274EC12173D6B
:10461C0074F41216CD851882851983AC82AD83751E
:10462C00838275824774041215E090295093F460CC
:10463C00030247A3907808E0C39402500302478317
:10464C007404121719AC82AD837583817582C97499
:10465C00081215E0851882851983858212858313CB
:10466C007404121719AC82AD83750EFF750FFF7FA2
:10467C00FF7E00750C48750D78801574086E7003FC
:10468C0002471774096E7003024717740A6E607B39
:10469C00850C82850D8378081215858C828D83A9F3
:1046AC0009E50AC9F88810741878081214B3E510D3
:1046BC004508F8C3E098A3E099850C82850D8378B2
:1046CC000812158540188C828D8374187808121482
:1046DC00B3E5104508F8E0C398F8A3E0801C741803
:1046EC0078081214B3E5104508FAE9FB8C828D8327
:1046FC00E0F8A3E0F9EAC398F8EB99F9C3E8950E52
:10470C00E9950F5006880E890FEEFF0EE50C240478
:10471C00F50CE50D3400F50DEEC394135003024671
:10472C008774FF650E700474FF650F60238F087427
:10473C000278081216BA74482508F582747835097F
:10474C00F5837808121585851282851383E508F0A8
:10475C00EC2402FCED3400FD851282851383A385C5
:10476C008212858313740C121719E5826C7003E5A1
:10477C00836D60030246757508017509007808128F
:10478C0019507402121719AC82AD837A547B0A1239
:10479C0011B474021216E3740C1216E37F0C021897
:1047AC000FC082C0839061AE7468F0A3746AF090FD
:1047BC00624574FBF0A304F053F4FD43FE02900534
:1047CC003F7401F09061A0E0643A90619A70237498
:1047DC0033F0A37455F09061A0743AF07401640145
:1047EC007009C2919003A6746780289003A6746127
:1047FC008021743FF0A3745AF09061A0747FF07420
:10480C000164017009D2919003A674718005900324
:10481C00A6746A02460F7F0802180FC082C08390EC
:10482C0004F1E06401700A9004F6E06004790C80F5
:10483C00027900024610C082C08375E1F19004F445
:10484C00E0605B14600914605F14605714705E12B2
:10485C000B129004EAE0F97AEB7B04120CF87AD68E
:10486C007BBE7C897D8E120D2E7A557B557C557DB9
:10487C0000120D049004F5E0F9120D107901120DDF
:10488C006A9004E8E0F8A3E0C82416F582E8340046
:10489C00F583742AF0A3740BF07900024610120B06
:1048AC001880AF120B1E80AA120B2480A5791280DF
:1048BC00EA74F012173D75D90D9004D5E0A2E0E42E
:1048CC00331313F89004EAE0C4333354C048440162
:1048DC00F5D978E8790488828983A3A3A3E0F5D974
:1048EC0088828983A3A882A983E864EE7003E964B3
:1048FC000470E378D5790488828983A3E0F5D9889C
:10490C00828983A3A882A983E864DB7003E9640429
:10491C0070E575E1959004D5E0F97AD67B04120C1C
:10492C00FE900A0974BEF0A3740AF0A37420F0A3DD
:10493C00740CF0A37420F0A3740CF0A37420F0A3F7
:10494C00740CF0A374C4F0A3740AF0A37420F0A345
:10495C00740CF0A374DCF0A3740AF0900A177420A2
:10496C00F0A3740CF0A37420F0A3740CF0A37420C7
:10497C00F0A3740CF0A37420F0A3740CF0A37420B7
:10498C00F0A3740CF0A37420F0A3740CF09004F456
:10499C00E064019004E87012E0F8A3E0F5838882EB
:1049AC00A3A37508007509088010E0F8A3E0F5834F
:1049BC008882A3A3750804750900750A00750B009D
:1049CC0078081214FE750CFF750DFF750EFF750F30
:1049DC00007808790C12154C9004E8E0F8A3E0C8B4
:1049EC00240EF582E83400F58378081215949004AF
:1049FC00E8E0F8A3E0C82414F582E83400F58374E9
:104A0C0013F09003A27402F002482274F712173DBF
:104A1C009004FAE02407F5D99004EAE0C433335447
:104A2C00C0F5D978E8790488828983A3A3A3E0F53B
:104A3C00D988828983A3A882A983E864EE7003E9EC
:104A4C00640470E39004FAE0601F78E87904FAE8F3
:104A5C002413F582E93400F583E0F5D98882898343
:104A6C00A3A882A9831AEA70E690051AE02407F538
:104A7C00D99004EAE0C4333354C04404F5D978E83F
:104A8C00790488828983A3A3A3E0F5D988828983DA
:104A9C00A3A882A983E864EE7003E9640470E39030
:104AAC00051AE0601F78E87904FAE82433F582E906
:104ABC003400F583E0F5D988828983A3A882A98381
:104ACC001AEA70E675E195900A0974CAF0A3740AA3
:104ADC00F0A37420F0A3740CF0A37420F0A3740C56
:104AEC00F0A37420F0A3740CF0A374C4F0A3740AA4
:104AFC00F0A37420F0A3740CF0A374DCF0A3740A7C
:104B0C00F0900A177420F0A3740CF0A37420F0A397
:104B1C00740CF0A37420F0A3740CF0A37420F0A315
:104B2C00740CF0A37420F0A3740CF0A37420F0A305
:104B3C00740CF09004E8E0F8A3E0C8240EF582E8C9
:104B4C003400F58374FFF0A3F0A3F0A3F09004E815
:104B5C00E0F8A3E0C82414F582E83400F58374125D
:104B6C00F09003A27401F0FF02180F74F712173DB6
:104B7C009004FAE02407F5D99004EAE0C4333354E6
:104B8C00C04402F5D978E8790488828983A3A3A369
:104B9C00E0F5D988828983A3A882A983E864EE70A2
:104BAC0003E9640470E39004FAE0601F78E8790488
:104BBC00FAE82413F582E93400F583E0F5D988820C
:104BCC008983A3A882A9831AEA70E675E195900AF5
:104BDC000974D6F0A3740AF0A374D6F0A3740AF087
:104BEC00A374D6F0A3740AF0A374D6F0A3740AF0DD
:104BFC00A374D6F0A3740AF0A374D6F0A3740AF0CD
:104C0C00A374DCF0A3740AF0900A177420F0A37458
:104C1C000CF0A37420F0A3740CF0A37420F0A37414
:104C2C000CF0A37420F0A3740CF0A37420F0A37404
:104C3C000CF0A37420F0A3740CF09004E8E0F8A33B
:104C4C00E0C8240EF582E83400F58374FFF0A3F07D
:104C5C00A3F0A3F09004E8E0F8A3E0C82414F582D4
:104C6C00E83400F5837414F09003A27404F0024F3E
:104C7C003E74F712173D9004FAE02407F5D990041E
:104C8C00EAE0C4333354C04406F5D978E879048893
:104C9C00828983A3A3A3E0F5D988828983A3A88200
:104CAC00A983E864EE7003E9640470E39004FAE00D
:104CBC00601F78E87904FAE82413F582E93400F5EA
:104CCC0083E0F5D988828983A3A882A9831AEA7024
:104CDC00E690051AE02407F5D99004EAE0C43333D2
:104CEC0054C04404F5D978E8790488828983A3A355
:104CFC00A3E0F5D988828983A3A882A983E864EE0E
:104D0C007003E9640470E390051AE0601F78E87999
:104D1C0004FAE82433F582E93400F583E0F5D98808
:104D2C00828983A3A882A9831AEA70E675E195901B
:104D3C000A0974D0F0A3740AF0A37420F0A3740CC5
:104D4C00F0A37420F0A3740CF0A37420F0A3740CE3
:104D5C00F0A37420F0A3740CF0A37420F0A3740CD3
:104D6C00F0A374DCF0A3740AF0900A177420F0A37B
:104D7C00740CF0A37420F0A3740CF0A37420F0A3B3
:104D8C00740CF0A37420F0A3740CF0A37420F0A3A3
:104D9C00740CF0A37420F0A3740CF09004E8E0F809
:104DAC00A3E0C8240EF582E83400F58374FFF0A369
:104DBC00F0A3F0A3F09004E8E0F8A3E0C82414F505
:104DCC0082E83400F5837415F09003A27403F002AA
:104DDC004F3EC082C0839004E8E0F8A3E0C82406EC
:104DEC00F582E83400F583E402460D74F712173DA2
:104DFC009003D0E0F875F003A4C8AAF02AF974D295
:104E0C0028F8740339F9E82405FAE93400FB8A829E
:104E1C008B83E0FCA3E0FD88828983A3A3A3A3A3D7
:104E2C00A3A3A3A3ECF0A3EDF088828983A3A3A38F
:104E3C00A3A3A3A3E024FFF8A3E034FFF98A828B99
:104E4C0083E8F0A3E9F0024F3E74F712173DEAFE37
:104E5C00EBFF9061D0E06003024F3275D90E75D92B
:104E6C000375D904EE248BF582EF3400F583E582CB
:104E7C002408F8E5833400F9E0F5D9A3E8658270DD
:104E8C0003E9658370F2EE2483F582EF3400F58339
:104E9C00E5822404F8E5833400F9E0F5D9A3E8654C
:104EAC00827003E9658370F275E1957908EE248BC5
:104EBC00FAEF3400FB120BCC7904EE2483FAEF34B6
:104ECC0000FB120BCC7C00EEF8EFF9ECFAC3E49A81
:104EDC00FA95E0FBEE2AFAEF3BFBEA248AF582EB2B
:104EEC003400F583E0C0E0E824AAF582E93400F54B
:104EFC0083D0E0F00C88828983A3A882A983ECC3B9
:104F0C00940840C7EE246FF582EF3400F583E0F887
:104F1C00A3E0F9EE2471F582EF3400F583E8F0A3F9
:104F2C00E9F07901800279008008F0EEA2E092AFFE
:104F3C0079007F0102180FC082C08375D90275D920
:104F4C000375D90575E195EA246FF582EB3400F50C
:104F5C0083E0F8A3E0F9EA2471F582EB3400F583E1
:104F6C00E8F0A3E9F0790102461074F612173DEA55
:104F7C00FEEBFF9005457406F0750845750905783C
:104F8C00081219507C017903120C1474021216E3E6
:104F9C0075D90675D903758245758305E0F5D9A3D6
:104FAC00E582644A7004E583640570F075E19590C0
:104FBC0003A2E06408701EEE246FF582EF3400F556
:104FCC0083E0F8A3E0F9EE2471F582EF3400F58369
:104FDC00E8F0A3E9F0790102524474F612173DEAA5
:104FEC00FEEBFF9061D0E070667801900545740B84
:104FFC00F09003A2E06407701975084575090578EF
:10500C00081219507C017903120C1474021216E365
:10501C007805740128F5D975D90375824575830512
:10502C00E8FAE0F5D9A31AEA70F875E195EE246F69
:10503C00F582EF3400F583E0F8A3E0F9EE2471F586
:10504C0082EF3400F583E8F0A3E9F079018002796E
:10505C000002524474F712173DEAFEEBFF75D903B8
:10506C0075D90375D90DEE24DDF582EF3400F58387
:10507C00E0F5D975E1957904120D34EE246FF582C3
:10508C00EF3400F583E0F8A3E0F9EE2471F582EF3C
:10509C003400F583E8F0A3E9F07901024F3E74F691
:1050AC0012173DEAFEEBFF9061D0E0F87480C398D4
:1050BC00FAEE2482F582EF3400F583E06004780484
:1050CC0080027800E8240BF8EAC398500302516F71
:1050DC007D09900545EDF0EE24E2F8EF3400F97A05
:1050EC00467B057C0888828983E08A828B83F088E2
:1050FC00828983A3A882A9838A828B83A3AA82AB89
:10510C00831CEC70E0EE2482F582EF3400F583E032
:10511C00601D75084575090578081219507C0979C8
:10512C0003EEFAEFFB120C1474021216E37D0D74ED
:10513C00012DF5D975D9037582457583058D08E068
:10514C00F5D9A31508E50870F675E1957904120DEB
:10515C0034EE241DF582EF3400F583E4F0A3F079EE
:10516C00018002790002524474F612173DEAFEEBFC
:10517C00FF9061D0E0F87480C398FAEE2482F58237
:10518C00EF3400F583E06004780480027800E824B2
:10519C0008F8EAC398500302524278069005457409
:1051AC000CF09003BFE0900546F09003C0E0900532
:1051BC0047F09003C1E0900548F09003C2E09005E1
:1051CC0049F09003C3E090054AF0EE2482F582EF9B
:1051DC003400F583E0601B750845750905780812E5
:1051EC0019507C067903EEFA120C1474021216E3B1
:1051FC00780A740128F5D975D9037582457583052C
:10520C008808E0F5D9A31508E50870F675E19579DD
:10521C0004120D34EE246FF582EF3400F583E0F8C0
:10522C00A3E0F9EE2471F582EF3400F583E8F0A3E6
:10523C00E9F07901800279007F0202180F74F612EE
:10524C00173DEAFEEBFF9061D0E0F87480C398FA4A
:10525C00EE2482F582EF3400F583E060047804805C
:10526C00027800E82404F8EAC39850030253237828
:10527C0002900545E8F0EE24F4F582EF3400F58356
:10528C00E0900546F0EE2482F582EF3400F583E0E1
:10529C00601B75084575090578081219507C027950
:1052AC0003EEFA120C1474021216E3780674012839
:1052BC00F5D975D9037582457583058808E0F5D94C
:1052CC00A31508E50870F675E195EE2473F582EFE9
:1052DC003400F583E4F0EE247FF582EF3400F5839F
:1052EC00E4F0EE241DF582EF3400F583E4F0A3F036
:1052FC007904120D34EE240DF582EF3400F583E0C1
:10530C00F8A3E0F9EE2471F582EF3400F583E8F0B0
:10531C00A3E9F079018002790002524474F6121765
:10532C003D9061D0E0F87480C398FCEA2482F58249
:10533C00EB3400F583E06004780480027800E82404
:10534C0004F8ECC398405B79029005457407F0EAC9
:10535C0024F5F582EB3400F583E0900546F0EA2461
:10536C0082F582EB3400F583E06018750845750909
:10537C000578081219507C0209120C1474021216CA
:10538C00E37906740129F5D975D9037582457583BE
:10539C0005E9F8E0F5D9A318E870F875E1957901FD
:1053AC008002790002524474F512173DE9FCA2AF59
:1053BC00E433F50AC2AF7D0080010DEA246EF5825C
:1053CC00EB3400F583E0F8EDC398501A8D08EA250C
:1053DC0008F8EB3400F9E8246AF582E93400F58327
:1053EC00E06C70D68024EA246EF8EB3400F9E0FE11
:1053FC00EA2EFAEB3400FBEA246AF582EB3400F572
:10540C0083ECF088828983E004F0E50AA2E092AF95
:10541C007F0302180F74F612173DA2AFE433FDC2DE
:10542C00AFEA246EF582EB3400F583E014F07C00D7
:10543C0060368C08EA2508F8EB3400F9E8246BF5A3
:10544C0082E93400F583E0C0E0E8246AF582E934AF
:10545C0000F583D0E0F00CEA246EF582EB3400F515
:10546C0083E0F8ECC39840CAEA246DF582EB340073
:10547C00F58374FFF0EA2469F582EB3400F583E4DC
:10548C00F0EDA2E092AF025244C082C083E5A8F8CE
:10549C00C2AFEA246AF582EB3400F583E9F0EA2422
:1054AC0069F582EB3400F583E4F0E8A2E7A2E79219
:1054BC00AF02461074F312173DEAFEEBFFECFAED67
:1054CC00FB8A828B83A3A3A3A3E0541FF0EE2436A4
:1054DC00F582EF3400F583E4F0F50AEEFCEFFD8A7B
:1054EC00828B83E0C0E0EC245DF582ED3400F58323
:1054FC00D0E0F0750B00E50A33333354F8F50C8A21
:10550C00828B83E0F508750900E50B780812169B71
:10551C00E508A2E0502FEE2436F8EF3400F988822B
:10552C008983E0F508EE2508F508EF3400F509E568
:10553C00082438F582E5093400F583E50CF08882FF
:10554C008983E004F0050B050CE50BC3940840AF10
:10555C00050A8A828B83A3AA82AB838C828D83A358
:10556C00AC82AD83E50AC3940550030254EB7F056E
:10557C0002180F74F712173D9003CEE0640170030C
:10558C000256DD7A009003D4E060030256DD74010C
:10559C00F0A3E4F0A3F090043404F0900439F090FC
:1055AC0003D7E4F0A3F0A3F0A3F09003E104F09090
:1055BC000407E4F09003EAF0A3F0A3F0A3F0A3F047
:1055CC00A3F0A3F0900451F0900445F090043A74C9
:1055DC0080F0A3E4F0900440F09004BCF0A3F0A39E
:1055EC00F0A3F0A3F0A3F0A3F0A3F09004C5F09007
:1055FC000454F09004A4F0A3F0A3F0A3F0A3F0A340
:10560C00F0A3F0A3F0A3F0A3F09004B0F09004B2D8
:10561C00F09004AEF09004C8F0A3F0A3F0A3F0A3B4
:10562C00F0A3F0A3F0A3F078CE7903E8246EF58212
:10563C00E93400F58374FFF00A88828983A3A88279
:10564C00A983EAC3940440E37ACE7B0378DC790423
:10565C0088828983E0C0E0EA2461F582EB3400F5AE
:10566C0083D0E0F088828983A3A882A9838A828B65
:10567C0083A3AA82AB83E864E17003E9640470D06D
:10568C007ACE7B0378B5790388828983A3E0C0E066
:10569C00EA24E6F582EB3400F583D0E0F0888289C9
:1056AC0083A3A882A9838A828B83A3AA82AB83E873
:1056BC0064BD7003E9640370CF9003CEE004F06422
:1056CC000170089003D6E09003D0F07AD27B03806F
:1056DC00047A007B00024F3EC082C0839003D5E465
:1056EC00F09003D4F09003CEF0A3F0A374FFF07508
:1056FC00E1F1024610C082C083780079009003D596
:10570C00E0600478D2790388828983A3A3A3A3E001
:10571C00F902461074F612173DEAFEEBFFEE246315
:10572C00F582EF3400F583E0F8A3E0F9E849700363
:10573C000257C5EE2463F8EF3400F97A007B00A21F
:10574C00AFE433F508C2AF88828983E0FCA3E0FDA7
:10575C00EC4D603A88828983E0FAA3E0FB8A828B65
:10576C0083E0FCA3E0FD88828983ECF0A3EDF08A52
:10577C00828B83E4F0A3F088828983E0FCA3E0FDB4
:10578C00EC4D700A88828983A3A3E4F0A3F0E508AA
:10579C00A2E092AF12126E9004E2E004F09004E3E7
:1057AC00E004F0EE2463F582EF3400F583E0F8A317
:1057BC00E0F9E849600302573F8E828F83A3A3A3CD
:1057CC00E0600F8E828F83A3A3A3E4F09003CFE05D
:1057DC0014F09003CEE014F070069003D074FFF038
:1057EC008E828F83A3A3E4F09004E1E0700D90030C
:1057FC00CFE0640170057900120D16EEFAEFFB1282
:10580C000C4402524474F712173DEAFEEBFF8E82F1
:10581C008F83A3A3A3A3E0FA7B0012091AEEFAEF7D
:10582C00FB120B96120C2C024F3EC082C08378B533
:10583C00790388828983A3E4F088828983A3A88270
:10584C00A983E864BD7003E9640370E69003B67441
:10585C000102460F74F612173DEAFEEBFFEC24032F
:10586C00F8ED3400F988088909EC2407F8ED3400C8
:10587C00F9E8FCE9FD8C828D83E0F8A3E0F985085A
:10588C0082850983E0FAA3E0FB121642EE240DF5A3
:10589C0082EF3400F583E8F0A3E9F08C828D83E08D
:1058AC00F8A3E0F9850882850983E0FAA3E0FB12EE
:1058BC0016428B09EA45096013EE240DF582EF348C
:1058CC0000F583E02401F0A3E03400F002524474AC
:1058DC00F612173DEAFEEBFFEE242EF582EF3400B4
:1058EC00F583E0FCA3E0FD780079FAECFAEDFB120D
:1058FC001642EE246FF582EF3400F583E8F0A3E94D
:10590C00F0780079FAECFAEDFB1216428B09EA45B5
:10591C00096013EE246FF582EF3400F583E0240167
:10592C00F0A3E03400F002524474EC12173DEAFE8E
:10593C00EBFF74141217197808121585120CD48AFF
:10594C000C8B0D8C0E8D0F751002751100751200DD
:10595C00751300780C79101214EB7510FF7511FF8C
:10596C007512FF780C791012154C780C12194C8E9C
:10597C00828F83E0F8A3E0F5838882A3A31215A39A
:10598C0012267F74041216E3E96003025A998E8280
:10599C008F83E02402F8A3E03400F9E8FAE9FB8AEB
:1059AC00828B8378081215118A828B837508FF7598
:1059BC0009FF750AFF750B007808121572EE240B9F
:1059CC00F582EF3400F583C082C0838E828F83A36F
:1059DC00A3A3A3A3E02401F8A3E03400F9D083D05F
:1059EC0082E0687003A3E06970057901025A9B8E0E
:1059FC00828F83A3A3A3A3A3A3A3E02401F0A3E01A
:105A0C003400F0EE2473F582EF3400F583E064018A
:105A1C007036EE2474F582EF3400F583E0F8A3E0E1
:105A2C00F98E828F83A3A3A3A3A3A3A3E06870031F
:105A3C00A3E0697013EE2474F582EF3400F583E073
:105A4C002401F0A3E03400F0EE247FF582EF340063
:105A5C00F583E064017036EE2480F582EF3400F5B6
:105A6C0083E0F8A3E0F98E828F83A3A3A3A3A3A35F
:105A7C00A3E0687003A3E0697013EE2480F582EF55
:105A8C003400F583E02401F0A3E03400F079000247
:105A9C0047A874F612173DE9FEECFFEA2462F58282
:105AAC00EB3400F583E064016003025B479061D046
:105ABC00E0F508EA2482F582EB3400F583E060041B
:105ACC007804800278007480C39508FC95E0FDEFA3
:105ADC0028F8E43400F9E82402F8E93400F9EC98E9
:105AEC00ED99A2D265D033404E740A121719E0F525
:105AFC0008A3E0F509EA2482F582EB3400F583E093
:105B0C0060157808121950EFFCEEF9120C1474029F
:105B1C001216E374042FFF74012FF5D98ED9EF60A0
:105B2C000F850882850983F8E0F5D9A318E870F889
