:020000040000FA
:0600000002011A0221BBFF
:03002B0002292186
:0300530002222E58
:03006B000228EF79
:10008300022027E5C754F84401F5C779012200008F
:100093000080FB120086B90003020104E479217891
:1000A30008B800028004F709D8FCE479297802B87B
:1000B30000028004F709D8FCE490028178C579072F
:1000C3008002F0A3D8FCD9FA781A90014A7A01BACF
:1000D30000028007E493A3F608DAF97A457B0990D6
:1000E300014B783B79048015E493A3AD82AE838AF8
:1000F300828B83F0A3AA82AB838D828E83D8E9D9C6
:10010300E77582317583A6740312012C758291758C
:100113008300740012012C75D00075813F7518811E
:10012300751902759F00020096C09FF59FE473D076
:100133009F22D083D082C09FE493C0E0740193C018
:10014300E0740293F59F2201FF0000B40000280031
:100153002800283075A000A000A000A0000008001F
:1001630008E001F000100010001000100010001053
:100173000050005000500010001000D00700000095
:100183000000000F0001000500307507001000019A
:100193000081FF00000000FF8306A1068906FF021D
:1001A300020208025000A0000000E80302E48101FB
:1001B3000000A78102DC810100009C0902B28101D9
:1001C3000000B30202DC810100009D0902B4810139
:1001D3000000C90202DC810100009E0902B6810110
:1001E3000000CB0202DC810100009F0902B88108F4
:1001F3000000CC0202DC81010000A00902BA8101E7
:100203000000A109FF0100FF2002E481010000A416
:100213008102DC81010000050A02BC8100000000AC
:100223000002B0810300001903590C590C590C59F1
:100233000C590C590C590C590C590C590C590C5993
:100243000C590CED0E050FE70E1409485947494E9A
:10025300455820455065726970686572616C051276
:1002630050002003020A000201050302F0FF536954
:100273006D706C6520424C452050657269706865ED
:1002830072616CD10F0000D70FFFFF02020202025E
:1002930002020202010D000000100102E4810100CC
:1002A300009E8102DC81010000880A02DE810100D8
:1002B30000630702DC81010000890A02CE8101008C
:1002C30000158102DC810100008A0A02CC81010051
:1002D30000078102DC810100008B0A02CA81010050
:1002E30000938002DC810100008C0A02C8810100B6
:1002F30000A58002DC810100008D0A02C681010095
:1003030000B78002DC810100008E0A02C481010073
:1003130000818002DC810100008F0A02C28101009A
:1003230000F98002DC81010000900A02C081010013
:1003330000910A01E803053F100AFF00013075032D
:1003430002010600000000000000000000000000A1
:10035300000000000000000000000000000000FF9B
:10036300FF0600800CE8030A4368617261637465E9
:100373007269737469632031000243686172616357
:10038300746572697374696320320008436861722B
:100393006163746572697374696320330010436821
:1003A30061726163746572697374696320340002F6
:1003B300436861726163746572697374696320353C
:1003C3000002E481010000A18102DC8101000064DC
:1003D3000B02D2810300002F0902AE8101000065E8
:1003E3000B02DC81010000760B02D4810100003096
:1003F3000902AE81010000770B02DC810100008855
:100403000B02D681020000310902AE81010000898E
:100413000B02DC810100009A0B02D881000000323C
:100423000902B081030000330902AE810100009B81
:100433000B02DC81010000AC0B02DA8104000039FD
:100443000902AE81010000AD0B104B65792050729B
:100453006573732053746174650002E481010000C5
:100463009B8102DC81010000460C02E28100000056
:100473003E0902B0810300003F0902AE8101000082
:10048300470C120135AB9603120135C296031201D4
:1004930035F396031201352E97031201355897034E
:1004A300120135829703120135999703120135B072
:1004B3009703120135C79703120135F09703120111
:1004C300350398031201351998031201352C98034B
:1004D300120135539803120135BCA702120135C02E
:1004E300A802120135F8A8021201351BA902120154
:1004F3003526A90212013549A90212013558AA026B
:100503001201352DAB02120135A8AB0212013530B1
:10051300AC021201356BAC02120135A2AC0212011E
:100523003530AD0212013509AE0212013569AE0252
:1005330012013574AE02120135F3AE02120135F623
:10054300AE02120135F9AE0212013588AF02120173
:10055300358BAF02120135BBAF02120135E5AF0295
:10056300120135D3B00212013585B102120135BA39
:10057300E002120135E2E00212013510E10212013C
:100583003547E102120135A5E102120135F0E1021E
:100593001201353BE2021201357BE202120135C141
:1005A300E202120135EFE202120135ACE30212015D
:1005B30035B6E302120135C3E302120135F6E30255
:1005C300120135C2E402120135CEE402120135E60E
:1005D300E402120135F0E402120135CCA303120147
:1005E30035DAA303120135F2A3031201350AA4037A
:1005F300120135C87000120135747100120135EF14
:1006030071001201351073001201354C7300120191
:1006130035F57300120135DC7400120135407600A4
:10062300120135977600120135187700120135084B
:100633007800120135557800120135DB780012017C
:10064300350D7900120135217B00120135637B00E2
:10065300120135817B00120135047C00120135D86B
:100663007C00120135A07D0012013509CA02120176
:1006730035DCCA0212013585CB02120135D8CB0213
:1006830012013588CC0212013514CD021201350056
:10069300CE021201352FCE0212013542CF021201D2
:1006A300358ACF021201355FD0021201359BD00289
:1006B300120135B7D0021201354EA50312013500E0
:1006C30080031201351680031201353C80031201A9
:1006D3003558810312013562810312013597820374
:1006E3001201358F83031201359FD602120135CFD4
:1006F300D70212013502D8021201354CD802120179
:100703003513DA021201351DAA0112013587AA0138
:10071300120135E6AB01120135F6AB0112013523A7
:10072300AC011201357AAC0112013523AD0112017E
:10073300352AAE01120135F4AE0112013554B00170
:1007430012013597B0011201353CB101120135890F
:10075300B101120135AFB101120135BDB30112016F
:1007630035C2B301120135C7B50112013514B60103
:1007730012013587B601120135BAB6011201355C93
:10078300B70112013505B8011201353DB801120157
:100793003540B80112013588B801120135C8B801D6
:1007A3001201351FB901120135398D03120135517B
:1007B3008D03120135998D03120135AF8D0312019B
:1007C30035F68D031201350A8F03120135978F0316
:1007D300120135E28F031201355029001201355CF5
:1007E3002900120135972900120135DC2900120175
:1007F300359C2A00120135222B00120135872B006C
:10080300120135B32B00120135EC2B001201352AEE
:100813002E001201350E3000120135F431001201A1
:10082300353733001201358535001201359736000F
:10083300120135E23700120135F238001201350F8B
:1008430039001201354A39001201356C39001201A1
:1008530035CF3900120135903E00120135253F0096
:10086300120135763F001201359D3F00120135EF2D
:100873003F001201350D400012013567400012019F
:1008830035504100120135C642001201354A43007A
:1008930012013577E50212013581E502120135C4F3
:1008A300E502120135DFE5021201356FE60212019E
:1008B3003597E602120135D4E6021201350BE70241
:1008C30012013534E702120135A9E702120135BEE0
:1008D300E702120135D3E70212013504E8021201DF
:1008E3003518E8021201353DE80212013577E802B6
:1008F300120135A3E802120135DBE8021201355A71
:10090300E902120135A3E902120135CDE902120110
:1009130035F8E902120135C49F03120135E99A0241
:10092300120135179B02120135659C0212013545F0
:100933009D02120135649D02120135E19D021201EF
:1009430035249E021201357A9F021201353BA00223
:10095300120135C2A20212013563A30212013559F5
:10096300A40212013556A502120135B0A6021201E6
:10097300353BA702120135409D03120135A99D03A2
:10098300120135FD9D03120135249E0312013555D5
:100993009E03120135A7EE0212013514EF02120174
:1009A300355BEF0212013573F0021201356FF1026C
:1009B30012013552F202120135F6B1021201353835
:1009C300B2021201350AB302120135E3B302120176
:1009D30035DDB402120135BFB50212013528B60266
:1009E300120135DEB60212013552B702120135BECD
:1009F300B702120135E7B70212013561B8021201DD
:100A030035FAB8021201355FB90212013574B90221
:100A1300120135BAB902120135D3B90212013538C0
:100A2300BA021201353BBA02120135408A031201A0
:100A330035688A03120135A68A03120135648B03D4
:100A4300120135CB8B03120135E78B031201350FEE
:100A53008C031201353F8C031201354E8C031201B6
:100A630035CB8C03120135F18C031201350CBA011D
:100A7300120135EABB011201351CBE0112013558C2
:100A8300BE0112013585BE011201356FBF0112018E
:100A930035BABF0112013505C00112013517C00176
:100AA30012013557C0011201358CC001120135DA2C
:100AB300C00112013509C1011201352CC101120116
:100AC3003579C101120135FEC10112013518C40186
:100AD30012013557C60112013598C6011201353A84
:100AE300C8011201357BC801120135EEC80112019C
:100AF3003544C901120135D48D02120135D28E025B
:100B03001201356B95021201358C9702120135578C
:100B13009902120135BF9A02120135B14300120145
:100B2300356044001201358D4400120135D3440071
:100B3300120135134600120135A94700120135236E
:100B430048001201353E4800120135B94800120130
:100B530035134A00120135734B00120135794C00ED
:100B6300120135DA4D00120135F34D0012013551F2
:100B73004E001201353F4F00120135724F00120132
:100B830035E24F001201355C5000120135A65000CA
:100B930012013570510012013545520012013524FE
:100BA3005300120135AF53001201351D54001201D9
:100BB30035915400120135BC54001201357B5500A8
:100BC300120135E05600120135FD56001201351CA5
:100BD30057001201350D5800120135325800120129
:100BE300355C5800120135D75800120135315900D0
:100BF3001201359A5A00120135485B0012013589FA
:100C03005B001201350080021201354E8002120191
:100C1300355A800212013538810212013569810289
:100C23001201359A81021201351A820212013552DC
:100C33008202120135A48202120135E182021201FD
:100C430035FE84021201352487021201350F890211
:100C5300120135F98A021201354529001201350ABC
:100C630096011201353A9601120135139D011201C5
:100C730035989E0112013595A4011201357DA50118
:100C8300120135BAA501120135DDA5011201350E98
:100C9300A60112013517A60112013521A601120181
:100CA300350FA70112013505A801120135B95B0003
:100CB300120135B85F00120135BE5F00120135F92C
:100CC3006600120135126C0012013598FB02120105
:100CD300352EFC0212013544FC02120135BAFC0226
:100CE3001201352EFD021201356CFD02120135E0B1
:100CF300FD0212013559FE0212013562FE02120194
:100D0300356EFE0212013583FE02120135C1FE0269
:100D1300120135D7FE0212013536FF0212013514D6
:100D2300F30212013521F3021201353BF3021201E2
:100D3300357AF302120135B8F3021201351DF402BC
:100D430012013532F4021201353DF4021201354A23
:100D5300F40212013561F4021201356FF40212013B
:100D6300357AF40212013586F40212013595F40244
:100D7300120135A0F402120135C3F4021201356ADF
:100D8300F5021201357AF50212013594F5021201CA
:100D930035B1F502120135CDF502120135F2F50236
:100DA300120135FDF50212013512F6021201352644
:100DB300F60212013587F6021201358DF602120191
:100DC3003593F60212013599F602120135B1F60296
:100DD300120135E4F602120135DFD7011201356342
:100DE300D80112013512D90112013571DA0112014C
:100DF3003592DC011201357EDD01120135B3DD01CF
:100E0300120135D5DD0112013584DE011201357C75
:100E1300E001120135A5E00112013537E1011201AC
:100E23003569E10112013576E101120135CDE101A8
:100E3300120135F3E10112013560E401120135635A
:100E4300E501120135BBE5011201356EC90112013D
:100E53003578CA011201355FCB0112013569CB0127
:100E63001201358BCB0112013597CB0112013530BD
:100E7300CD011201355FCD011201357BCE01120187
:100E830035D4CE011201353AD00112013519D10101
:100E930012013575D101120135E2D1011201351D5F
:100EA300D2011201355CD20112013515D5011201AF
:100EB300352FD501120135BBD501120135C9D50135
:100EC30012013522D60112013530D601120135A3A4
:100ED300D60112013507D70112013551D70112018D
:100EE30035EEF30112013510F40112013536F60126
:100EF3001201354BF90112013563FA01120135165E
:100F0300FB01120135F8FB01120135149A0312019A
:100F130035399A03120135AB9A031201358FC20298
:100F230012013598C202120135A1C20212013578AD
:100F3300C30212013529C5021201355FC502120130
:100F43003599C502120135CFC50212013509C60212
:100F53001201353DC60212013569C602120135B2CE
:100F6300C602120135ECC60212013535C702120161
:100F7300358DC702120135C2C7021201351DC802E1
:100F830012013557C802120135A8C802120135DE15
:100F9300C80212013518C90212013546C9021201ED
:100FA3003569C902120135A3A403120135CFA40385
:100FB3001201352AA50312013534A5031201354464
:100FC300A50312013561F702120135BDF9021201C1
:100FD30035CFFA021201356FFB021201352CD10213
:100FE30012013536D10212013574D102120135BD19
:100FF300D102120135F7D10212013551D202120189
:101003003572D2021201357BD202120135CCD202E3
:10101300120135F5D202120135FFD2021201356BEE
:10102300D302120135F9D30212013547D40212015A
:10103300357DD40212013504D50212013544D5029F
:101043001201357CD5021201358ED502120135AD60
:10105300D502120135B6D50212013575D602120139
:1010630035E1A103120135D2A503120135AC940376
:10107300120135E2940312013518950312013571FB
:10108300960312013566FF021201357CFF0212013D
:101093003586FF02120135D0FF0212013520EA0224
:1010A30012013539EA02120135DDEA021201351D5A
:1010B300EB0212013536EB021201356AEB02120123
:1010C30035B7EB02120135EBEB021201352DEC02C1
:1010D3001201352DEE021201359AEE02120135DBB3
:1010E300A20312013504A3031201352DA303120138
:1010F3003545A30312013587A3031201352F870357
:10110300120135548703120135808703120135D24A
:10111300A603120135E781011201354B8401120147
:1011230035FD8501120135EF860112013574870102
:10113300120135F287011201351F8801120135436F
:101143008B01120135BD8B01120135AC8C011201EB
:1011530035E68C01120135268D01120135E08E0131
:10116300120135338F011201357C8F01120135EAEB
:101173008F011201351C90011201353490011201C7
:1011830035499101120135599101120135899201B5
:10119300120135AB9201120135E19201120135863C
:1011A3009401120135C59401120135E5950112012F
:1011B3003537A70312013589A603120135C8A603E3
:1011C300120135E57F001201351CFF011201352C98
:1011D300FF0112013541FF01120135F5FF01120133
:1011E30035DDA00312013562A103120135C8A10345
:1011F3001201359B9E03120135C29E03120135185D
:101203009F031201352A9F031201357A9F031201AE
:1012130035B89F03120135BB9F03120135C6DB02AC
:10122300120135DADB0212013553DC021201352CCF
:10123300DD02120135EADF021201354FE00212012D
:1012430035A6E002120135F87F00120135779203CB
:10125300120135029403120135639403120135A977
:101263009403120135B99B031201350E9C0312013D
:10127300357C9C03120135EC9C031201350C900361
:101283001201353690031201350B9103120135FF1C
:1012930091031201355FBA021201351CBB02120120
:1012A3003557BB021201357FBB02120135E1BB0288
:1012B3001201352DBC0212013586BC02120135170D
:1012C300BD0212013519BE02120135D6BF02120149
:1012D3003558C002120135BDC002120135D4C00217
:1012E300120135E4C10212013522C202120135098D
:1012F300E60112013593E9011201351BEB011201DD
:101303003572EB0112013591EB011201350FEC013E
:10131300120135ADED0112013591EE011201357B5C
:10132300F2011201354BF3011201359983031201C6
:1013330035DE8303120135FB8303120135AC8403CD
:10134300120135FF8403120135DA8503120135F6E4
:101353008603120135659803120135AA9803120119
:1013630035FE98031201357C9903120135DB99038D
:10137300120135B97F0012013519A703E066701019
:1013830008A3E066700A08A3E066700408A3E06699
:1013930022C3E7960809E7960809E7960809E7963E
:1013A30022C3E09608A3E09608A3E09608A3E0967C
:1013B30022C008C3E096F50808A3E096420808A3F4
:1013C300E096420808A3E09645087001D3D00822AE
:1013D300080808EAC0E0EBC0E086F0E7A4FA1809C1
:1013E30086F0E7A42AFA180986F0E7A42AFA18096E
:1013F30086F0E7A42AFA1986F0E7A4FBE5F02AFAB7
:10140300190886F0E7A42BFBE5F03AFA190886F0F1
:10141300E7A42BFBE5F03AFA18180986F0E7A4C510
:10142300F02BFBE43AFA1908E7C5F0C6A426F6E563
:10143300F03BFBE43AFA1886F0E7A4F6E5F0082659
:10144300F6E43B08F6E43A08F6D0E0FBD0E0FA22F3
:10145300E4CFC0E0E4CEC0E0E4CDC0E0E4CCC0E043
:1014630075F020E626F608E633F608E633F608E6D6
:1014730033F6181818EC33FCED33FDEE33FEEF337F
:10148300FFC3EC9709ED9709EE9709EF971919191F
:10149300400FFFEC97FC09ED97FD09EE97FE191934
:1014A30006D5F0BFECF709EDF709EEF709EFF719E9
:1014B3001919D0E0FCD0E0FDD0E0FED0E0FF2260BF
:1014C30016080808C6C313C618C613C618C613C61B
:1014D30018C613C6D5E0EA22700908080822601668
:1014E300181818C6C333C608C633C608C633C60899
:1014F300C633C6D5E0EA22E627F60809E637F6083A
:1015030009E637F60809E637F622E026F608A3E0EF
:1015130036F608A3E036F608A3E036F622E026F016
:1015230008A3E036F008A3E036F008A3E036F02283
:10153300C3E697F60809E697F60809E697F6080959
:10154300E697F622C3E096F008A3E096F008A3E03E
:1015530096F008A3E096F022E657F60809E657F658
:101563000809E657F60809E657F622E056F608A3F7
:10157300E056F608A3E056F608A3E056F622E05636
:10158300F008A3E056F008A3E056F008A3E056F0F5
:1015930022E0F608A3E0F608A3E0F608A3E0F622AB
:1015A300E6F008A3E6F008A3E6F008A3E6F022E0DD
:1015B300FAA3E0FBA3E0FCA3E0FD22EAF0A3EBF037
:1015C300A3ECF0A3EDF022E0F8A3E0F9A3E0FAA383
:1015D300E0FB22E8F0A3E9F0A3EAF0A3EBF022CAD0
:1015E300C0E0E6F0A308DAFAD0E0FA22CAC0E0E0ED
:1015F300A3C582CCC582C583CDC583F0A3C582CCE8
:10160300C582C583CDC583DAE6D0E0CA22C3E49898
:10161300F8E499F91216518026C3E49AFAE49BFB85
:10162300E920E7E9121651E498F8E499F922C3E4B2
:1016330098F8E499F9121651E498F8E499F9C3E497
:101643009AFAE49BFB22EB20E7CFE920E7E0B9001D
:1016530010BB0008E88AF084F8AAF022E4FBC8FA79
:1016630022EB70227B10C833C8C933C9335007C378
:101673009AC3DBF280069A50012ADBEAC833F4C826
:10168300C933F4C9FA2275F008E4C833C8C933C9A9
:1016930033C99AC99B5004C92AC93BD5F0ECFBC88E
:1016A30033F4C8E4C9FA22600D08C6A2E713C618CA
:1016B300C613C6D5E0F322600C08C6C313C618C60A
:1016C30013C6D5E0F422700422600D18C6C333C6D6
:1016D30008C633C6D5E0F41822251810AF08F5184C
:1016E300400C15198008F51840021519D2AF2200D5
:1016F300C0D0251810AF08F518500C05198008F54F
:101703001850020519D2AFD0D0222518F58210AF98
:1017130008F518400C15198008F51840021519D260
:10172300AF851983222518F582E43519F58322251F
:1017330018F8E43519F9222518FAE43519FB22259E
:1017430018FCE43519FD22E4732518C582C0E0E5D1
:101753001934FFC583C0E0E518C3958224F810AFA0
:10176300088583198582188008858319858218D294
:10177300AFCEF0A3E520F0A37808E608F0A3DEFAE5
:10178300EFF0A3E58124FAF8E608F0A3E608F0A356
:10179300E608F0A30808E608F0A3E608F0A315811D
:1017A3001581D0E0FED0E0F8158115811581E8C0E0
:1017B300E0EEC0E0222518C582C0E0E51934FFC57C
:1017C30083C0E0E518C3958224F910AF0885831917
:1017D3008582188008858319858218D2AFCEF0A33D
:1017E300E520F0A37808E608F0A3DEFAEFF0A3E51E
:1017F3008124FBF8E608F0A3E608F0A30808E6084E
:10180300F0A3E608F0A315811581D0E0FED0E0F83F
:1018130015811581E8C0E0EEC0E0228519838518A3
:1018230082E0A3FEE0A3F5207808E0A3F608DFFA40
:10183300E0A3FFE0A3C0E0E0A3C0E0E0A3C0E0E0DA
:10184300A3C0E0E0A3C0E010AF0885821885831928
:101853008008858218858319D2AFD083D082020194
:1018630032851983851882E0A3FEE0A3F52078086A
:10187300E0A3F608DFFAE0A3FFE0A3C0E0E0A3C023
:10188300E0E0A3C0E0E0A3C0E010AF0885821885C4
:1018930083198008858218858319D2AFD083D082BB
:1018A30022C0D02518C582C0E0E51934FFC583C026
:1018B300E0E518C3958224F310AF08858319858268
:1018C300188008858319858218D2AFC8F0A3E9F080
:1018D300A3EAF0A3EBF0A37908E709F0A3D8FAECA5
:1018E300F0A3EDF0A3EEF0A3EFF0A3D0E0F0A3D0CC
:1018F300E0F0A3D0E0F0A3E520F0A3E5F0F0A3220D
:10190300851983851882E0C0E0A3E0F9A3E0FAA378
:10191300E0FBA37808E0F608A3DFFAE0FCA3E0FD10
:10192300A3E0FEA3E0FFA3E0C0E0A3E0C0E0A3E0E8
:10193300F5D0A3E0F520A3E0A3F5F010AF0885836D
:10194300198582188008858319858218D2AFD082C1
:10195300D083D0E0F8D0E0327404800674028002B1
:101963007401C0E0F40412170DD0E01215E22274E2
:1019730004800474028000CCC0E0EDC0E0E518C32D
:101983009CCCAD1950011D10AF068C188D19800623
:101993008C188D19D2AF1215EFD0E0FDD0E0FC22E8
:1019A300D083D082E9C0E0E493A3C386F0C5F09569
:1019B300F0F908E493A386F0C5F095F0700BE49377
:1019C300A3C3994005E9048002A3E475F002A425AA
:1019D30082F582E5F03583F583D0E0F9E493A3C083
:1019E300E0E493C0E022D083D082ECC0E0EDC0E01D
:1019F300E493A3FCE493A3FDED4C600D121A35ECC4
:101A030024FFFCED34FFFD80EFE493A3FCE493A3F8
:101A1300FDED4C600D121A74EC24FFFCED34FFFD58
:101A230080EFD0E0FDD0E0FCE493A3C0E0E493C0FA
:101A3300E022C0E0C3E49396087401939618400F24
:101A4300E49366700808740193661870007019A314
:101A5300A3C3E49396087401939618A3A3400DD0EF
:101A6300E0D0E0D0E0021A25A3A3A3A3A3A3D0E070
:101A730022C0E0C0F088F0E4936670080874019314
:101A830066187000A8F0A3A3700BD0F0D0E0D0E0EC
:0C1A9300D0E0021A25A3A3D0F0D0E0227E
:101AA00074F51217B8EAFEEBFFEE2434F8EF3400B9
:101AB000F988088909EE2435F582EF3400F583E0D2
:101AC000F8EE2437F582EF3400F583E0F50AEC8573
:101AD0000AF0A4FCAAF0850AF0EDA42AFDE82CF88F
:101AE000E43DF97A257B00121651EA8508828509C2
:101AF00083F0F8740758F97401B900028004C33305
:101B0000D9FCFAE8131313541FF8EE28F8EF340049
:101B1000F9E8245DF582E93400F583E05A6008EEC7
:101B20002434F582EF802CEE2434F582EF3400F576
:101B300083E0C0E0EE2436F582EF3400F583E0F573
:101B4000F0D0E084A8F0EE28F8EF3400F9E824386B
:101B5000F582E93400F583E0F97F0402186474F536
:101B60001217B8EAFEEBFFEE2434F582EF3400F5ED
:101B700083E0C0E0EE2435F582EF3400F583D0E059
:101B8000F08E828F83A3A3A3A3A3A3A3C082C08349
:101B90008E828F83A3A3A3A3A3E0F8A3E0F9D0834D
:101BA000D082E0C398F508A3E099F509EE247FF50B
:101BB00082EF3400F583E064017069EE2480F582E1
:101BC000EF3400F583E0F8A3E0F98E828F83A3A3BE
:101BD000A3A3A3A3A3E0FCA3E0FD8E828F83A3A312
:101BE000A3A3A3E0FAA3E0FBC3EA9CEB9D5010C3C0
:101BF000EC98ED99402EC3EA98EB995027800EC3DC
:101C0000EA98EB994007C3EC98ED9940177CDC7D8E
:101C100004EEFAEFFB120BB7EE247FF582EF3400EF
:101C2000F583E4F0EE2434F8EF3400F9E8FCE9FD44
:101C3000EE2435F582EF3400F583E0F8EE2437F535
:101C400082EF3400F583E0F50AE508850AF0A4F593
:101C500008AAF0850AF0E509A42AF509E82508F89C
:101C6000E43509F97A257B00121651EA8C828D83BE
:101C7000F0F8740758F97401B900028004C333D92D
:101C8000FCFAE8131313541FF8EE28F8EF3400F9A8
:101C9000E8245DF582E93400F583E05A6008EE241B
:101CA00034F582EF802CEE2434F582EF3400F58396
:101CB000E0C0E0EE2436F582EF3400F583E0F5F085
:101CC000D0E084A8F0EE28F8EF3400F9E82438F5E5
:101CD00082E93400F583E0F91228DB021B59C08247
:101CE000C083851882851983E0F8A3E0F9C3EA9CD4
:101CF000EB9D5010C3EC98ED99401BC3EA98EB990B
:101D00005014800EC3EA98EB994007C3EC98ED9904
:101D10004004790180027900D083D08222EAC39CFA
:101D2000FAEB9DFB2274EF1217B89003A2E064084F
:101D30006005E06407702A9061C8E060249003D0D9
:101D4000E0F4601DE0F875F003A4C8AAF02AF97465
:101D5000D228FE740339FF8E828F83A3A3A3E07081
:101D600003021E55906060E0C0E0EE2468F582EF4B
:101D70003400F583D0E0F0750C45750D057508004D
:101D8000750900E5D914F50AE5D95403F50E601775
:101D90007403650E605CE50A6010EE2467F582EF5F
:101DA0003400F583E07003021E3A900540E06401C0
:101DB000602AEE2482F582EF3400F583E060047837
:101DC0000480027800850A08E508C398FA95E0FBCC
:101DD000120A7F8A088B09EA45097005120DBB803B
:101DE00074EE2482F582EF3400F583E070048A0CEF
:101DF0008B0DE50A6012850C82850D83F50BE5D904
:101E0000F0A3150BE50B70F6EE2482F582EF34009B
:101E1000F583E0604474FC250AF50A780C12195F1A
:101E2000AC0AA90EEEFAEFFB120C5374021216F272
:101E3000E97026AA08AB0912126B793D8E828F8356
:101E4000A3A3A3A3E0FA7B00120953EEFAEFFB125F
:101E50000BCF120C65790080747403650E60568593
:101E60000A10751100781012195FAC0CAD0DAA089C
:101E7000AB09120C2F74021216F2EE2468F582EFF1
:101E80003400F583E064807004747F8001E0F50C19
:101E9000780C121963E50EF50C780C121963A90A77
:101EA000AC08AD099003D0E0FA7B00120917740268
:101EB0001216F280139003A2E06408600BAC0CAD24
:101EC0000DEEFAEFFB120CBF120DC779017F0A026B
:101ED000186474F51217B874FC1216DCEAFEEBFFF6
:101EE0008908A2AFE433F509C2AF806AEE2463F833
:101EF000EF3400F97A007B00A2AFE433F50AC2AFF9
:101F000088828983E0FCA3E0FDEC4D603A888289F9
:101F100083E0FAA3E0FB8A828B83E0FCA3E0FD88E8
:101F2000828983ECF0A3EDF08A828B83E4F0A3F046
:101F300088828983E0FCA3E0FDEC4D700A888289E9
:101F400083A3A3E4F0A3F0E50AA2E092AF12126B20
:101F50009004E3E004F0EE2463F582EF3400F583AF
:101F6000E0F8A3E0F9E849603DEE2463F582EF3440
:101F700000F583E02402FAA3E03400FBEA2402F532
:101F80000AEB3400F50B780A12195F8A828B83E022
:101F9000FCA3E0F9EEFAEFFB120BF374021216F257
:101FA000E97003021EEC9004E3E060639004E4E057
:101FB000F89004E3E0C398500C74026508705090E8
:101FC00004E5E0604A8E828F83A3A3A3A3E0851873
:101FD00082851983F0A3E4F09004E3E0F874021220
:101FE0001728E8F0A3E4F09004E3E0F89004E2E0BE
:101FF00028F07402121728AC82AD838518828519E7
:1020000083AA82AB8379011209239004E3E4F0E50B
:1020100009A2E092AF74041216F2021B59000000EC
:102020008521878522C622C0E0C0D0E8C0E0E9C093
:10203000E0EAC0E0EBC0E0ECC0E0EDC0E0EEC0E004
:10204000C008C009C00AC00BC082C083C0F0A2AFE4
:10205000E433FEC2AF759B00906182E0A2E05012B3
:10206000E591A2E0500C7591FE7401652170031298
:102070001D25E0A2E55051E591A2E5504B7591DF99
:102080009003A2E064076005E064087023740165B2
:1020900021703579019003D0E0FA75F003A4CAA845
:1020A000F028FB74D22AFA74033BFB121ED280186C
:1020B000E0640D70139003C4E004F064287002E43F
:1020C000F07A00E0F9120DCD906182E0A2E64003C3
:1020D00002216EE591A2E6400302216E7591BF9048
:1020E00003A2E064057008120CF5120D01800312C2
:1020F0000CFB752100120D5BE99003A3F07900122F
:102100000D4F120B2D7A017B009003A1E0F9121004
:1021100037907803E064427055900544E014F07005
:102120004DC2AF12212600782AD0E0F618D0E0F692
:10213000E59F540770057509FF800375097FC4C0CA
:10214000E07829E6F50808E65509F509740B7808E2
:102150001216BAD0E02508F8906270E0A2E740F8C5
:10216000E8C333906272F0906270E0D2E0F0906168
:1021700081E0A2E35009E5E9A2E3500375E9F7A382
:10218000E0A2E75009E591A2E7500375917FEEA226
:10219000E092AFD0F0D083D082D00BD00AD009D05B
:1021A00008D0E0FED0E0FDD0E0FCD0E0FBD0E0FACB
:1021B000D0E0F9D0E0F8D0D0D0E032C0E0C0D0C05C
:1021C00082C083906183E0A2E05009E5BFA2E050A5
:1021D0000375BFFEE0A2E15009E5BFA2E15003751F
:1021E000BFFDE0A2E25009E5BFA2E2500375BFFBCC
:1021F000E0A2E35009E5BFA2E3500375BFF7E0A2F8
:10220000E45009E5BFA2E4500375BFEFE0A2E5503A
:1022100009E5BFA2E5500375BFDFE0A2E65009E57E
:10222000BFA2E6500375BFBFD083D0828088C0E0D4
:10223000C0D0E8C0E0E9C0E0EAC0E0EBC0E0ECC03C
:10224000E0EDC0E0C0F0E5A7A2E6500FE5A1A2E6F0
:10225000500953A7BF75A1BF122293E5A7A2E5506D
:102260000CE5A1A2E5500653A7DF75A1DFE5A7A203
:10227000E15009E5A1A2E1500375A1FDE5A7A2E2A5
:10228000500CE5A1A2E2500653A7FB75A1FBD0F0CC
:102290000221A474F81217B87521019003A2E0641A
:1022A000067015120C838A828B83A3A3A3A3A3A316
:1022B000E0FAA3E0FB120CE3A2AFE433FED2AF904E
:1022C00003A8E0640170187A207B009003A1E0F974
:1022D0001210C17A207B009003A1E0F912103D900A
:1022E0006182E0D2E6F0900541E0602185C622805F
:1022F000169003A7E064017008E5C654F84405F59C
:10230000C653BEFC1220207401652160E4EEA2E0F9
:1023100092AF7F01021864008E238F248582288566
:102320008327851882851983E0CEA3E0CF85288294
:10233000852783EBC9EAC8EDCBECCA75F010C3E87A
:1023400033C8E933C9EA33CAEB33CBC3EA9EF52677
:10235000EB9FF525B35004AB25AA26EC33CCED3327
:10236000CDD5F0DAAE23AF242274E91217B874F891
:102370001216DC851882851983ECF0A3EDF08A082B
:102380008B099003A2E024F7C39405500675080159
:10239000022500120C838A0A8B0BAE0AAF0BEE4F9C
:1023A00070030224FDAC08AD097402121728AA823A
:1023B000AB83120D138E828F83A3A3750CFF750D53
:1023C000FF750EFF750F00780C12156E7402121750
:1023D000287510FF7511FF7512FF75130078101224
:1023E000156E780C7910121394502A780C7910120B
:1023F00015337508017509C8750A00750B00780852
:10240000790C1213945052850C08850D09850E0A1B
:10241000850F0B80507514017515C875160075175A
:102420000085100885110985120A85130B78087933
:102430000C12153378147908121394401C75080097
:10244000750900750A00750B0178087910121533AB
:102450007808790C1214FA800C750801750900755A
:102460000A00750B00740978081214DB750C19F555
:102470000DF50EF50F7808790C1214538E828F83A8
:10248000A3A3A3A3A3A3E0F8A3E0F97AD07B03124C
:102490001651880C890DE4F50EF50F7808790C12A9
:1024A00014FA7406121728E0F8A3E0F97AD07B0337
:1024B000121651E8FA8A0CE4F50D7808790C12131B
:1024C0009450077808790C1215339003A2E0640841
:1024D000600AE064066005E06405702D750C0D78F7
:1024E0000C79081213944021750CF4750DFF750ECC
:1024F000FF750FFF7808790C1214FA800C7508002C
:10250000750900750A00750B00851882851983E02E
:10251000F8A3E0F583888278081215A374081216D0
:10252000F27F1002186474F71217B8120D25900587
:102530003FE064017010906245E4F0A3F053F4F3BF
:1025400043FE0C5390F3120CD1E5C654804449F578
:10255000C6E59E547F644970F8906185740FF090D1
:10256000053DE0F47002A3E0604E90053EE0600897
:1025700014601B14602E80407508017509009005D9
:102580003DE078081216C9E508F45280802A7508E3
:102590000175090090053DE078081216C9E508F4B8
:1025A0005290801475080175090090053DE0780887
:1025B0001216C9E508F452A079007F02021864746B
:1025C000F71217B8E9FEEAFF74016E700C7A807B8F
:1025D000009003A1E0F9121037902948E493F460C9
:1025E00008E493F9120B21800953C680E59E547FBD
:1025F00070FA120CD790053FE064017003120B399A
:1026000090053DE0F47002A3E0604B90053EE06071
:102610000814601A14602C803D750801750900903B
:10262000053DE078081216C9E50842808028750843
:102630000175090090053DE078081216C9E50842C9
:1026400090801375080175090090053DE078081227
:1026500016C9E50842A0120D25120C838A088B09C1
:10266000A808A909E8496015E5E170FCE82414F51B
:1026700082E93400F583E0F46003E0F5E174016F72
:10268000700A7A019003A1E0F91210910225BA7440
:10269000ED1217B88A088B098C0A8D0B7413121768
:1026A00028780C1215947808790C1213947510017F
:1026B0007511C875120075130050127808790C1244
:1026C00015337810790812139450168010780C790D
:1026D000081215337810790C121394400479018094
:1026E0000279007F0C02186474ED1217B88A088B07
:1026F000098C0A8D0B7413121728780C1215947814
:102700000C790812139440117808790C121533AA29
:1027100008AB09AC0AAD0B8022751000751100756D
:1027200012007513017810790C121533781079089E
:102730001214FAAA10AB11AC12AD1380A68A828BC8
:10274000837508FF7509FF750AFF750B007808127D
:1027500015817F0402186474F51217B88C828D837A
:1027600078081215948A828B837808121547EA2418
:1027700004F8EB3400F98C828D83A3A3A3A3E0FCBF
:10278000A3E0FD88828983C3E09CF0A3E09DF088EC
:10279000828983C3E09420A3E0944E40268A828BF2
:1027A000837508FF7509FF750AFF750BFF7808121E
:1027B00015208A828B83A3A3A3A3E02420F0A3E0A7
:1027C000344EF002273D74F51217B8E9FE9004F775
:1027D000E0FAA3E0FBEEC333F8E433F974E928F53B
:1027E00082748039F583E02AF508A3E03BF5097887
:1027F0000812195F7A407B427C0F7D001223187407
:10280000021216F28A088B098C0A8D0B7410780854
:102810001214C2AA08AB097F0402186474F11217DB
:10282000B88A0C8B0D8C0E8D0F740F121728E0FADE
:10283000A3E0FB7411121728E0F508A3E0F509786E
:102840000812195FEA2401F508EB3400F509E4F5F4
:102850000AF50B780C79081213D375087175090203
:10286000780C79081213D3AA0CAB0DAC0EAD0F1275
:10287000231874021216F28B09EA450960047A01E2
:1028800080027A00EC2AFCED3400FD741312172844
:10289000E0F8A3E0F9E8FEE9FFECF8EDF97A717BE6
:1028A00002121651880889098E828F8378081215C2
:1028B000A3ECF8EDF97A717B021216518A088B09A4
:1028C000740578081216C98E828F83A3A3A3A3E58B
:1028D00008F0A3E509F07F08021864C082C083E90C
:1028E000906000F0D083D08222C2AF02000022C0EC
:1028F000E074F21218A4A2AFE433FED2AFE589A2CD
:10290000E04006E589A2E1500312120B75890075BB
:102910008900C2C5751A00EEA2E092AF7F010219CC
:1029200003C0E0C0D0E8C0E0E9C0E0E5A8D2AFC293
:10293000C7751A00A2E7A2E792AFD0E0F9D0E0F89D
:10294000D0D0D0E032020132FFFFFFFFFFFFFFFFD8
:10295000C082C083E9900A04F0022BDF74F71217DB
:102960004CE99002E1F07C197D037AFF7BFF1208AD
:10297000699002E274FFF0A3F0A3E4F0A3F07905FC
:102980001207F19002E1E0F91207137A877B08122F
:102990000A317F0102181E74F412174C8A088B0941
:1029A000EB548060309002E1E0F912101F8A0A8B2C
:1029B0000BAE0AAF0BEE4F60138E828F83E064B0D4
:1029C0007003120809EEFAEFFB12100DAA08E509D0
:1029D0006480FB80047A007B00022BAE74F2121735
:1029E0004C74FC1216DCEAFEEBFFEE4F603874020A
:1029F000121728EEF0A3EF122E13ECF0A3ED122E17
:102A000013AA82AB8312070DE9F5087073741212D2
:102A100017281239C7E50A450B60658E828F83122D
:102A20002A8AEE4F700575080280557A067B0012DF
:102A300010798A0C8B0DA80CA90DE8497005750852
:102A400013803D88828983E4122A94A3A3EEF0A325
:102A5000EF123E60E50AF0A3E50BF09002E7122BBF
:102A60001C9002E76017E0FCA3E08003EAFCEBFDAA
:102A70008C828D83122B1C70F38C828D831238EC28
:102A8000A90874041216F2024062A3A3A3A3E0FEF5
:102A9000A3E0FF22F0A3F0888289832274F2121748
:102AA0004C890AE975F017A4FEAFF09002E6E4F055
:102AB0009002E4122B1C600A12107F9002E4E4F0F2
:102AC000A3F0EEFAEFFB1210798A088B09EA4509A8
:102AD000602FEEFCEFFD7900120FFB9002E4E50899
:102AE000F0A3E509F07B008008122B06E4F0A3F0C8
:102AF0000BEBC3950A40F2E50A9002E6F0790080FC
:102B0000027913024062EB75F017A4F8A9F0900265
:102B1000E4E028FAA3E0398A82F58322123682EAB9
:102B20004B2274F412174C750800750900740C12CE
:102B30001728123E34FEE9FF800CE5082401F50851
:102B4000E5093400F509C3E5089CE5099D50328587
:102B5000080A85090B7403780A1216C9EA250AF8CF
:102B6000EB350BF988828983A3A3A3A3A3A312390E
:102B7000C7EE650A7003EF650B70BFE8FAE9FB80EA
:102B8000047A007B00802774F412174C7900EAA2C3
:102B9000E0501B75083E750981780812195F7C04A6
:102BA0007D007A067B0A1207EB74021216F27F048C
:102BB00002181EC082C0839002E7122BE6601C88B8
:102BC000828983A3A3E06A7003A3E06B8882898370
:102BD00070E8A3A3A3A312367E80047A007B00D002
:102BE00083D082020132124135E8492274EE121775
:102BF0004C74FC1216DCEAFEEBFF85188285198303
:102C0000E4F0A3F0EE24021238D0EE2405122E01D7
:102C1000EE2404F50EEF1231E6E024FE603924FCC8
:102C2000604624FE605224FE605E24FE7003022D86
:102C30000624FE7003022D7E24FE7003022D8D24D7
:102C4000FE7003022D9C24FC7003022DAB24FE7049
:102C500003022DBA022DF79003007417F0A3E412BB
:102C60002E1B12048B022DF7851882851983AC82E6
:102C7000AD8312080F022DC7851882851983AC8297
:102C8000AD83120815022DC7850C08850D09740245
:102C9000121728AC82AD8385088285098312367E9F
:102CA0001207318A0C8B0DAC0CAD0DEC4D6042E47B
:102CB000F50CF50D780C12195F750C00750D037885
:102CC0000C12195F750C01750D03780C12195F74E5
:102CD00008121728121976791612367812085174CC
:102CE000081216F2E9F50C700B1236741204A38068
:102CF0000F750C01850882850983122E091238ECA4
:102D0000850C08022DCA7402121728AC82AD838587
:102D10000C82850D8312367E1207318A108B11AC1E
:102D200010AD11EC4D6043850C82850D83A3A31279
:102D30001976751000751103781012195F7510015E
:102D4000751103781012195F74081217281219767A
:102D5000791612367812085174081216F2E9F5093C
:102D6000700B1236741204A9800F750901850C824C
:102D7000850D83122E091238EC850908804C8518C0
:102D800082851983AC82AD8312081B803A85188234
:102D9000851983AC82AD83120821802B851882852A
:102DA0001983AC82AD83120827801C85188285198F
:102DB00083AC82AD8312082D800D8518828519831E
:102DC000AC82AD83120833E9F508E50860298E82EC
:102DD0008F83A3E06414601F850E82850F83E090CB
:102DE0000300122E131241319003011238ECE50852
:102DF000A3122E1B120485EEFAEFFB1207AF023767
:102E0000D8F50CEF3400F50D221241358518828576
:102E1000198322F085188285198322F07C007D03B6
:102E2000850A82850B831236822274EE12174C7447
:102E3000FC1216DC8A0A8B0B8C0E8D0FEA2405F52A
:102E400008EB3400F5097C157D0079007A007B03DE
:102E5000120FFBE5082402F50CE509122E04851873
:102E600082851983858210858311781012195F85F8
:102E70000882850983A3A3A3A312332E12195FE549
:102E8000082405F510E5093400F511781012195FD2
:102E9000850C82850D8312368812072B7406121654
:102EA000F28A108B11AE10AF11E50A2402F50AE583
:102EB0000B1238D3EE4F7003022FF08017740212FA
:102EC000172812367E88828983EAF0A3EBF09003FC
:102ED00000E004F0900300E0C394054003022FF0EB
:102EE000E4F510F511781012195F7510E9751102EB
:102EF000781012195F7510EA751102781012195FB7
:102F000074061217281219767910EEFCEFFD1236AE
:102F10007812085174081216F2E9705E85088285ED
:102F20000983A3A3A3A3A3A3A3E0F89002E9E06805
:102F3000704812332E12195F7CEA7D02E5082408DE
:102F4000FAE5093400FB120FF574021216F2E9607B
:102F5000298E828F83A3A3A3A312367E900300E061
:102F6000F510740278101216C974012510F58274D8
:102F7000033511F583EAF0A3EBF0740212172885EC
:102F80008210858311781012195F740212172812AB
:102F90001976850C82850D83124146120737740419
:102FA0001216F28A108B11AE10AF11900300E0F5EB
:102FB00010751100740278101216C974002510F8EB
:102FC00074033511F988828983A3122B1C700302C4
:102FD0002EB4E82403F8E93400F9EE4F6003022E22
:102FE000BD8882898374FFF0A3F0900300E004F0B1
:102FF000900300E0600A1236741204977900800B87
:103000008508828509831238E3790A0237D874EA81
:1030100012174C74FE1216DC8C128D13EA2405F57F
:103020000CEB1242B0122A8E750800750900EA24D2
:1030300002F510EB3400F51185188285198385821D
:103040000A85830B780A12195F850C82850D83A38C
:10305000A3A3A31231F012195FE50C2405F50AE5CC
:103060000D1238D3780A12195F850C82850D8312F0
:10307000414412072B74061216F28A0A8B0BEA459A
:103080000B70030231A1EA2404F50EEB1231E612B3
:103090002A8E8A828B83A3A3A3E0F98510828511EF
:1030A0008312367E120719E9F50960030231A1E4A3
:1030B000F514F515781412195F7514E97515027871
:1030C0001412195F7514EA751502781412195F74D9
:1030D000061217281219767913AC0AAD0B851082E7
:1030E00085118312367E12085174081216F2E9F522
:1030F0000960030231A19002E9E0F8E5087009E0F7
:103100002402900301F08017900301E0FCE8240200
:10311000FAE43400FBEA6C7001EB60030231A58530
:103120000882AA82123325941412331D5073850E1F
:1031300082850F83E0C0E074022A1231DDD0E0F016
:103140000508850E82850F83A3E0C0E085080A7418
:1031500002250A1231DDD0E0F005089002E91231B3
:10316000F012195F7CEA7D0285080A7402250AFACA
:1031700074033400FB120FE374021216F29002E99A
:10318000E02508F50874FF6E700374FF6F6012EE9F
:1031900024010EEF3400FFE508C3941450030230FD
:1031A00038E508601312356985108285118312365F
:1031B0007E12049D79008014E509700375090A8563
:1031C0001282851383EEF0A3EFF0A90974021216A0
:1031D000F27F0E02181E85080C7402250CF582740D
:1031E000033400F583223400F50F850E82F5832227
:1031F000123E732274EE12174C74FE1216DC8C0E03
:103200008D0FEA2405F50CEB122E04750B009003CC
:1032100000E4F0F50AEA2402F508EB3400F5098031
:1032200049900300E0FA9002E9E0F8123325941780
:1032300012331D400D900300E0F87416C3989002FD
:10324000E9F012332E12195F7CEA7D0274012AFA2A
:1032500074033400FB120FE374021216F29002E9B9
:10326000E0F8900300E028F0050AE50C2416F5824A
:10327000E50D1231E1E0F8E50AC398400302330698
:10328000900300E0C39416507DE50AC333F8E4339D
:10329000F9E50C28FEE50D39FF851882851983AC08
:1032A00082AD838E828F8312367E1207318A108B15
:1032B00011AC10AD11EC4D7005750B018043E4F5B8
:1032C00010F511781012195F7510E9751102781058
:1032D00012195F7510EA751102781012195F7406E1
:1032E00012172812197679168508828509831236F5
:1032F0007E12085174081216F2E9F50B70030232BF
:10330000211238DF80107C007D03850882850983C7
:1033100012367E1204AFA90B74020237DAE9940068
:10332000C365D03322EA28F8E43400F9E822E0F556
:103330001075110078102274EA12174C74FC1216E2
:10334000DC8A0C8B0D8C128D13EA2405F50AEB1226
:1033500038D3750800750900E50A2402F510E50B5D
:103360003400F511740212172885820E85830F78B8
:103370000E12195F850A82850B83A3A3A3A3123EB5
:103380001F12195FE50A2405F50EE50B3400F50F51
:10339000780E12195F8510828511831238D9123682
:1033A0007812072B74061216F28A0E8B0FAE0EAF30
:1033B0000FE50C2402F50EE50D3400F50F80408872
:1033C00082898374FFF005081231D674FFF0050876
:1033D0009002E9E0F50C750D00780C12195F7CEA9B
:1033E0007D0285080C7402250CFA74033400FB126C
:1033F0000FE374021216F29002E9E02508F508EED8
:103400004F60718E828F83A3A3A3E0F9850E82851E
:103410000F8312367E120719E9F509EE2404122EE5
:1034200001E97044E4F514F515781412195F751468
:10343000E9751502781412195F7514EA751502788A
:103440001412195F74081217281219767911EEFCFC
:10345000EFFD850E82850F8312367E1208517408A7
:103460001216F2E9F5096027850C82850D83123565
:103470005F1238ECE5087003023545123569850E98
:1034800082850F8312367E1204B5790002355A8583
:103490000882AA82EA9002E97009E02404900301FC
:1034A000F08022E0F8900301E0F514E82404FCE445
:1034B0003400FDEC65147001ED70C01233259412D8
:1034C00012331D50B6850C82850D83E0C0E0740276
:1034D0002A1231DDD0E0F00508850C82850D83A32A
:1034E000E0C0E01231D6D0E012357B85820C8583B6
:1034F0000D780C12195F74041217281219768510B2
:103500008285118312414612073774041216F28A1B
:103510000C8B0DAE0CAF0D85080C7402250CF874E5
:10352000033400F9EE4F70030233BF85188285190A
:1035300083E08882898312357BA3E0C0E01231D614
:10354000D0E00233CDE509700375090A850A82854A
:103550000B8312355F1238ECA90974040231CE12C4
:10356000413585128285138322900301E0F5F0E551
:103570000884900300F07C007D0322F00508851884
:10358000828519832274EC12174C74FE1216DC8AA1
:10359000088B098C0E8D0FEA2405FEEB3400FF85A5
:1035A0001882851983AC82AD838E828F8312367E1A
:1035B0001207318A0A8B0BEE2418122E01EA450BF2
:1035C000700302364F1237C1503285188285198335
:1035D00012367E1208458A108B11EA4511606B790C
:1035E00012AC0AAD0B85088285098312367E8510E0
:1035F0008285118312174AE9F50A7058E4F50AF535
:103600000B780A12195F8E828F83A3A3E0F50A78E4
:103610000A12195FEE24031238D0780A12195F8E4D
:10362000828F8312368812085774061216F2E9F553
:103630000A7021850C82850D83E0701F85088285C4
:10364000098312367E1204BB8011750A0E8009753B
:103650000A018004E50A60031238DF850C82850DBB
:1036600083E0600479008002A90A74021216F27FD6
:103670000C02181E7C007D03850A82850B8312369E
:103680008222E0FAA3E0FB22E0FCA3E0FD850882B1
:103690008509831236822274EE12174C74FE1216BC
:1036A000DC8A088B098C0C8D0DEA2405FEEB3400B6
:1036B000FF750E00851882851983AC82AD838E82DA
:1036C0008F8312367E1207318A0A8B0BEA450B7004
:1036D000030237AD1237C150358518828519831220
:1036E000367E1208458A0E8B0FEA450F605E79120E
:1036F000AC0AAD0B85088285098312367E850E8261
:10370000850F8312174AE9F50E60030237B085086A
:10371000828509831239C7AA0AFB1208398A108BDD
:1037200011A810A911E849701E7AFF7BFF12083911
:103730008A108B11A810A911E849606C88828983CE
:10374000E50AF0A3E50BF0750A008007750E0E8000
:103750005F050A9002E6E0FAE50AC39A504AE50AD4
:1037600075F017A4FAABF088828983A3A3E02AFA44
:10377000A3E03BFB8A828B831238D9EC4D70D27563
:103780000A17750B00780A12195FEEFCEFFD120F95
:10379000E374021216F2EEFCEFFD850882850983C0
:1037A00012367E1204C18014750E098003750E0155
:1037B00012412D850C82850D831238ECA90E02333F
:1037C00018E5082402F508E5093400F5098A828B1A
:1037D00083A3A3A3E0A2E52274041216F27F0A02D7
:1037E000181E74EC12174C8C108D11EA2405F50C80
:1037F000EB122E04750F00EA2402F50AEB1238D3FF
:10380000850A82F58312367E1208398A088B09EA06
:10381000450970030238C5750E008071850C8285DC
:103820000D83E06401704F8E828F83A3A3121976FB
:103830008E828F83A3A3A3A3E0F5127513007812E1
:1038400012195FEE2405F512EF3400F51378121209
:10385000195F12367812085774061216F2E9F50F3E
:103860006014850C82850D83E4F012412D85108251
:103870008511831238EC7C177D007900EEFAEFFB9E
:10388000120FFB8E828F83E4F0A3F0050E9002E608
:10389000E0F8E50EC398501EE50E75F017A4F8A9E0
:1038A000F0850882850983A3A31242BA1238D9ECA5
:1038B0004D600302381C85088285098374FFF0A3DC
:1038C000F0E50F70061236781204C7A90F02366FA2
:1038D000F50AEF3400F50B22A3E0FCA3E0FD228EF5
:1038E000828F83124135850E82850F83E8F0A3E92C
:1038F000F022C082C0839002E2E06A7003A3E06B12
:1039000070067AE27B0280047A007B00022BDFC023
:1039100082C08378008C828D83E06A7003A3E06BA1
:103920007010E875F003A4F8A9F0EC28FAED39FB63
:103930008015088C828D83A3A3A3E06A7003A3E0A3
:103940006B60DF7A007B00022BDF74F612174C12DB
:1039500008038A828B83E582458370067A007B00A8
:103960008007A3A3A3A312367E023FDE74F21217D0
:103970004CE9FE740E1217281239C774101217285A
:10398000123E3F8C828D83E064027036A312413B6D
:10399000F50CA3E0F9A80C7402687003742969702F
:1039A00021750C02750D00780C12195F7808121938
:1039B0005F780A12195FEEF912087B74061216F28C
:1039C00080027901024062E0F50AA3E0F50B22745F
:1039D000E812174C74FB1216DCE9851882851983EE
:1039E000F08A168B17ECFEEDFF751000741D121790
:1039F00028124131741D1217281238EC8E828F83E1
:103A0000A3A3A3E0A2E4502D741D12172812367E42
:103A10001208458A828B83E58245837003023E103B
:103A2000790AEEFCEFFDAA16AB1712174AE9F5105A
:103A30006003023E13741F121728123E3F742112B6
:103A400017281239C77423121728E0F50EA3E0F5E2
:103A50000F8E828F83E064026003023DBEA3124199
:103A600031850882850983A3858212858313EE241C
:103A700006122E0188828983E0FAA3E0F9EA240085
:103A8000F514E439F51578141219E901000028013C
:103A900028B33A07000228783B0328E53A0029AF0B
:103AA0003C0129DA3C02297B3C0329AF3C0429591B
:103AB0003DBE3DE50E450F6003023DB9850C828594
:103AC0000D83123E34FAE9FB8A828B83E0850A82F9
:103AD000850B83123E6A12195F8A828B83A3E0FCF6
:103AE000A3E0023D43E50E450F6003023DB9850AA0
:103AF00082850B837401F0123E4785088285098315
:103B0000F07C007D008E828F83A3A3A3A3E0240119
:103B1000FAA3E03400FB120731EA4B60418A828B42
:103B200083E02402F8850A82850B83E028F0EA24EA
:103B300004F8EB3400F988828983E08512828513CA
:103B400083123E7C123E6A12195F8A828B8312387E
:103B5000D8E5082403FAE5093400FB023D48850A4C
:103B600082850B83E02404F07C047D007900AA1296
:103B7000AB13120FFB023E13E50E450F6003023D2F
:103B8000B9123E47FEA3E0FF850A82850B837404C9
:103B9000F0EE850882850983F0EF85128285138314
:103BA000F07403121728AC82AD83EEFAEFFB120714
:103BB000318A0C8B0DEA450D7003023C5C8A828BC6
:103BC00083A3A3122A8A740112172885820E858383
:103BD0000F780E12195F74051217281219767CFFE0
:103BE0007DFF12073774041216F28B0FEA450F702F
:103BF00033850C82850D83123E1F12195F850C825E
:103C0000850D83A31219767C027D007AAA7B81122E
:103C1000056374041216F2E9700A7401121728740D
:103C2000FFF0A3F08E828F83E064027039750C027E
:103C3000750D00780C12195F8E828F831238D8E5CB
:103C4000082404FAE5093400FB120FE3740212168B
:103C5000F2850A82850B83E0240280097401121721
:103C600028EEF0A3EFF07401121728123E30F07422
:103C700001121728A3123E28023DB3E50E450F603E
:103C800003023DB9850C82850D831238D9AA16AB83
:103C90001712086F850A82850B837402F0EA850883
:103CA00082850983F0851282851383EB023DB6E598
:103CB0000E450F6003023DB9123E47F8A3E0F985B7
:103CC0000A82850B837402F0E8850882850983F0F7
:103CD000E9851282851383023DB6850C82850D83AA
:103CE00012367E120FDDEAFC8C82A882C3950EE4A8
:103CF000950F405FE8650E7002E50F70047C008050
:103D000022851882851983E0FAE50E2AFAE50F3438
:103D100000FBC3EA98EB94005003E08005E50ECC6D
:103D2000C39CFCEC850A82850B83F08C0A750B0022
:103D3000780A12195F850C82850D83E0250EFCA39D
:103D4000E0350FFDAA08AB09120FE374021216F258
:103D5000023E13751007023E13E50E450F705A859B
:103D60000C82850D83124131850A82850B8374078D
:103D7000122A96123E28122A96A3E08512828513F3
:103D800083F0E82402FAE93400FB8A828B83123E36
:103D900028123E57123E30A3123E60123E39F0E820
:103DA0002405F8E93400F988828983123E39A31288
:103DB0003E7CA3A3A3A3F0805A75100B8055741DFD
:103DC00012172812367E1208038A828B83E58245F9
:103DD00083603D124131880C890DE8450D603178D2
:103DE0000E12195F780A12195F780812195F7406AB
:103DF000121728E0F9EEFCEFFDAA16AB17850C822E
:103E0000850D8312174A74061216F2E9F510800325
:103E100075100EA91074051216F27F1002181EE01C
:103E2000F50E750F00780E22E08508828509832241
:103E3000123E8622124135E822123E86A3A322E0DA
:103E4000F508A3E0F50922850C82850D83E0F8A32F
:103E5000E0F5838882E022A3A3F08A828B83A322E9
:103E6000F088828983A3A3A3A322F08A828B831282
:103E70003E7322E0F50A750B00780A22F0888289E9
:103E800083A3123E8622E0850882850983A3A322AC
:103E900074EE12174C74FE1216DC8A0A8B0BECFAC5
:103EA000EDFB7414121728E0F510A3E0F511741659
:103EB000121728E0FE7418121728E0F50EA3E0F59B
:103EC0000F851882851983AC82AD831207318A0C65
:103ED0008B0DEA450D604985188285198312367E5F
:103EE0001208038A828B83E5824583602FA3A31285
:103EF0003E3FE50845096024780E12195F781012DC
:103F0000195FEEF9AC0CAD0DAA0AAB0B85088285E2
:103F1000098312174A74041216F28006790E800281
:103F2000790102331874F612174C74FE1216DC7401
:103F30000C121728123E34851882851983F07401FB
:103F4000121728E9F0E4F508F509780812195F75E9
:103F50000802780812195F740412172885820885F0
:103F60008309780812195F12085774061216F27442
:103F7000021216F2806874F712174CEAFEEBFF8902
:103F8000087C197D0312086FEA5402600BA908EE41
:103F9000FAEFFB1207258002790102299274F612CA
:103FA000174C74FF6A700374FF6B70168C828D83DC
:103FB000123FE3E4F08C828D83A3A3A3123FE3A31B
:103FC000801812083F8A088B09A808A909E84960E7
:103FD0000D8882898374FF122A94A3A3E4F07F02E0
:103FE00002181E74FFF0A3F08C828D83A3A32274A9
:103FF000F612174C12083F8A828B83E58245836054
:1040000006A3A3E0FA80027A007B0080D174F2124A
:10401000174C8A088B09ECFEEDFF740E121728E08E
:10402000F50A12083F8A0C8B0DA80CA90DE84970FF
:1040300026EEFCEFFD7AFF7BFF12083F8A0C8B0D0A
:10404000A80CA90DE849700479118016888289832B
:10405000E508F0A3E509F088828983A3A3E50AF0C7
:1040600079007F0602181E74EE12174CEAFEEBFF71
:104070008C088D09890C741412172812413174169A
:1040800012172812367E750D00E84960030241259B
:104090007402650C60030241207412121728124149
:1040A0003BFCA3E0F9EC2400F50EE439F50FEAF44B
:1040B000F8EBF4F9EC58F8E50F59F9E849705CE5CC
:1040C000082406F8ED3400F9880A890B8882F58304
:1040D00012414612086F8A108B11E50E65107004AC
:1040E000E50F65116042780E12195F850A82850B13
:1040F0008312414612087574021216F2E9F50D702A
:1041000027780E12195F850882850983A3A31241BF
:104110004412088D74021216F2800D750D8080080D
:10412000750D0D8003750D0BA90D0237DD8E828F85
:104130008312413522E0F8A3E0F92212413588824A
:104140008983E022A3A3E0FCA3E0FDEEFAEFFB22CB
:1041500074E812174C74E71216DC851882851983EF
:10416000EAF0A3EBF08C168D17890E75080075091F
:10417000007431121728E0F512A3E0F5137433121E
:104180001728E0F514A3E0F5157435121728E0F5AB
:104190000FE50975F003A4F8A9F085188285198345
:1041A0001242BAE0F47003A3E0F4700302429DEE01
:1041B0002402F50CEF1242B0E0700302429D851616
:1041C0000A85170B780A12195FAC14AD15AA12AB49
:1041D000131207F774021216F28A0A8B0BEA450BC8
:1041E000700302429DE4F510F511781012195F7406
:1041F00006121728858210858311781012195F74B2
:1042000009121728858210858311781012195F858D
:104210001282851383A3A3A3A31219767914AC0A7F
:10422000AD0B8E828F8312367E12085174081216DF
:10423000F2E97069850A82850B83A3A3A3A31241C7
:104240003174021217281238EC850C82850D83E038
:10425000A2E05018A90E7402121728AC82AD838E0A
:10426000828F8312367E120749E94208850C8285C7
:104270000D83E0A2E15026E50FF50A780A121963D2
:10428000A90E7403121728AC82AD838E828F83121D
:10429000367E12074374011216F2E942080509E559
:1042A00009C394025003024191A9087419023E17F0
:1042B0003400F50D850C82F58322E028FEA3E03959
:1042C000FF8E828F832274F212174CEAFEEBFF8975
:1042D0000B7401650B600E7402650B706A79011234
:1042E0000A4FE97062EEFAEFFB1208398A088B096F
:1042F000EA45096047750A00800B7C177D0079004C
:10430000120FFB050A9002E6E0F8E50AC398502177
:10431000E50A75F017A4F8A9F0850882850983A33A
:10432000A3E028FAA3E039FB8A828B83122BE67084
:10433000C985088285098374FFF0A3F07C197D0389
:10434000EEFAEFFB12086902406274F212174C8A0F
:10435000088B09ECFEEDFF740E1217281239C79076
:104360000A04E0F4603D7A097B00121007EA4B6012
:10437000328A828B8374B1F0A3E4123E59A3123EB9
:1043800057A3E508F0A3E5091243A6EEF0A3EF1248
:1043900043A6A3A3E50AF0A3E50BF0900A04E0F915
:1043A000121013024062F08A828B83A3A3A3A3A3FB
:1043B00022C082C0839061907404F0A37448F0A37B
:1043C0007402F09061807440F09061BC7403F090CE
:1043D00061877419F0906265741BF0906249E0C3C4
:1043E000941390619C400A7409F090606674018097
:1043F00007740DF0906066E4F090619A7433F0A356
:104400007455F09061A0743AF090053FE06401703B
:1044100009C2919003A6746780059003A67461F0A9
:1044200090294EE493906186F0902948E493F460DB
:1044300027E493540FF8906185E0686012E5C65454
:10444000804449F5C6E59E547F644970F8E8F0530E
:10445000C680E59E547F70FA7905120DAF02460CB6
:10446000C082C083E9540FF9906185E0696012E56C
:10447000C654804449F5C6E59E547F644970F8E906
:10448000F053C680E59E547F70FA02460CC082C08D
:1044900083E5A8F853A87E906181E4F0A3F0A3F02F
:1044A000C2BA539AFEC289759B00C2C275E90075F3
:1044B000910075BF0075A91175B905906181F0A3D0
:1044C00074C0F0A3E4F0D2BA439A0174805842A8B1
:1044D00002460CC082C08374F81216DC9003A4E07C
:1044E000F8A3E0F9E84970030246019003A4E05400
:1044F0004060237908851882851983AA82AB8312CC
:104500000C11851882851983AA82AB831208FF904B
:1045100003A4E054BFF0E054806010790C7A657B0E
:1045200005120C119003A4E0547FF0E0A2E050319A
:1045300090619A7433F0A37455F09061A0743AF0CE
:1045400090053FE064017009C2919003A6746780F2
:10455000059003A67461F01209059003A4E054FECF
:10456000F0E05402603190619A743FF0A3745AF005
:104570009061A0747FF090053FE064017009D291D2
:104580009003A6747180059003A6746AF012090561
:104590009003A4E054FDF0E05404601390294CE42F
:1045A00093906186F012090B9003A4E054FBF0E0B5
:1045B0005408601390294DE493906186F012090B22
:1045C0009003A4E054F7F0E05410601390294EE4F7
:1045D00093906186F012090B9003A4E054EFF0E091
:1045E0005420600A12090B9003A4E054DFF0A3E00A
:1045F0005401600D120B391209119003A5E054FE0D
:10460000F074081216F202460CF0A3F0D083D082A8
:1046100002013274EC12174C74F41216DC85188205
:10462000851983AC82AD837583817582837404128E
:1046300015EF90294C93F4600302479F907808E0AF
:10464000C39402500302477F7404121728AC82AD52
:104650008375838175822274081215EF851882850F
:1046600019838582128583137404121728AC82ADD6
:1046700083750EFF750FFF7FFF7E00750C48750D6B
:1046800078801574086E700302471374096E700306
:10469000024713740A6E607B850C82850D8378084F
:1046A0001215948C828D83A909E50AC9F8881074C3
:1046B0001878081214C2E5104508F8C3E098A3E082
:1046C00099850C82850D83780812159440188C8288
:1046D0008D83741878081214C2E5104508F8E0C3F9
:1046E00098F8A3E0801C741878081214C2E51045ED
:1046F00008FAE9FB8C828D83E0F8A3E0F9EAC3981D
:10470000F8EB99F9C3E8950EE9950F5006880E89E4
:104710000FEEFF0EE50C2404F50CE50D3400F50D4D
:10472000EEC39413500302468374FF650E70047445
:10473000FF650F60238F08740278081216C9744849
:104740002508F58274783509F58378081215948563
:104750001282851383E508F0EC2402FCED3400FDA1
:10476000851282851383A3858212858313740C12AC
:104770001728E5826C7003E5836D6003024671754E
:104780000801750900780812195F7402121728AC25
:1047900082AD837A537B0A1211E774021216F27407
:1047A0000C1216F27F0C02181EC082C0839061AEFC
:1047B0007468F0A3746AF090624574FBF0A304F08F
:1047C00053F4FD43FE0290053F7401F09061A0E0B8
:1047D000643A90619A70237433F0A37455F0906139
:1047E000A0743AF0740164017009C2919003A67438
:1047F0006780289003A674618021743FF0A3745AE7
:10480000F09061A0747FF0740164017009D29190FE
:1048100003A6747180059003A6746A02460B7F0894
:1048200002181EC082C0839004F1E06401700A90F7
:1048300004F6E06004790C8002790002460CC08224
:10484000C08375E1F19004F4E0605B1460091460CA
:104850005F14605714705E120B4B9004EAE0F97A13
:10486000EB7B04120D317AD67BBE7C897D8E120DD6
:10487000677A557B557C557D00120D3D9004F5E01F
:10488000F9120D497901120DA39004E8E0F8A3E0B4
:10489000C82416F582E83400F5837463F0A3740B22
:1048A000F0790002460C120B5180AF120B5780AA10
:1048B000120B5D80A5791280EA74F012174C75D93D
:1048C0000D9004D5E0A2E0E4331313F89004EAE07D
:1048D000C4333354C0484401F5D978E87904888258
:1048E0008983A3A3A3E0F5D988828983A3A882A999
:1048F00083E864EE7003E9640470E378D579048892
:10490000828983A3E0F5D988828983A3A882A983B9
:10491000E864DB7003E9640470E575E1959004D503
:10492000E0F97AD67B04120D37900A2674F7F0A3CB
:10493000740AF0A37459F0A3740CF0A37459F0A393
:10494000740CF0A37459F0A3740CF0A374FDF0A3DD
:10495000740AF0A37459F0A3740CF0A37415F0A3B7
:10496000740BF0900A347459F0A3740CF0A37459CA
:10497000F0A3740CF0A37459F0A3740CF0A3745951
:10498000F0A3740CF0A37459F0A3740CF0A3745941
:10499000F0A3740CF09004F4E064019004E8701249
:1049A000E0F8A3E0F5838882A3A3750800750908E1
:1049B0008010E0F8A3E0F5838882A3A3750804754E
:1049C0000900750A00750B00780812150D750CFFAB
:1049D000750DFF750EFF750F007808790C12155BC9
:1049E0009004E8E0F8A3E0C8240EF582E83400F56E
:1049F0008378081215A39004E8E0F8A3E0C8241413
:104A0000F582E83400F5837413F09003A27402F089
:104A100002481E74F712174C9004FAE02407F5D9E7
:104A20009004EAE0C4333354C0F5D978E8790488B7
:104A3000828983A3A3A3E0F5D988828983A3A8826E
:104A4000A983E864EE7003E9640470E39004FAE07B
:104A5000601F78E87904FAE82413F582E93400F558
:104A600083E0F5D988828983A3A882A9831AEA7092
:104A7000E690051AE02407F5D99004EAE0C4333340
:104A800054C04404F5D978E8790488828983A3A3C3
:104A9000A3E0F5D988828983A3A882A983E864EE7C
:104AA0007003E9640470E390051AE0601F78E87908
:104AB00004FAE82433F582E93400F583E0F5D98877
:104AC000828983A3A882A9831AEA70E675E195908A
:104AD0000A267403F0A3740BF0A37459F0A3740CAA
:104AE000F0A37459F0A3740CF0A37459F0A3740CE0
:104AF000F0A374FDF0A3740AF0A37459F0A3740C2E
:104B0000F0A37415F0A3740BF0900A347459F0A359
:104B1000740CF0A37459F0A3740CF0A37459F0A3AF
:104B2000740CF0A37459F0A3740CF0A37459F0A39F
:104B3000740CF0A37459F0A3740CF09004E8E0F83E
:104B4000A3E0C8240EF582E83400F58374FFF0A3D7
:104B5000F0A3F0A3F09004E8E0F8A3E0C82414F573
:104B600082E83400F5837412F09003A27401F0FF20
:104B700002181E74F712174C9004FAE02407F5D9B6
:104B80009004EAE0C4333354C04402F5D978E8799C
:104B90000488828983A3A3A3E0F5D988828983A3AB
:104BA000A882A983E864EE7003E9640470E39004CA
:104BB000FAE0601F78E87904FAE82413F582E93412
:104BC00000F583E0F5D988828983A3A882A9831A96
:104BD000EA70E675E195900A26740FF0A3740BF065
:104BE000A3740FF0A3740BF0A3740FF0A3740BF075
:104BF000A3740FF0A3740BF0A3740FF0A3740BF065
:104C0000A3740FF0A3740BF0A37415F0A3740BF04E
:104C1000900A347459F0A3740CF0A37459F0A3747F
:104C20000CF0A37459F0A3740CF0A37459F0A3749E
:104C30000CF0A37459F0A3740CF0A37459F0A3748E
:104C40000CF09004E8E0F8A3E0C8240EF582E83404
:104C500000F58374FFF0A3F0A3F0A3F09004E8E064
:104C6000F8A3E0C82414F582E83400F5837414F046
:104C70009003A27404F0024F3A74F712174C900498
:104C8000FAE02407F5D99004EAE0C4333354C04471
:104C900006F5D978E8790488828983A3A3A3E0F58F
:104CA000D988828983A3A882A983E864EE7003E986
:104CB000640470E39004FAE0601F78E87904FAE88D
:104CC0002413F582E93400F583E0F5D988828983DD
:104CD000A3A882A9831AEA70E690051AE02407F5D2
:104CE000D99004EAE0C4333354C04404F5D978E8D9
:104CF000790488828983A3A3A3E0F5D98882898374
:104D0000A3A882A983E864EE7003E9640470E390C9
:104D1000051AE0601F78E87904FAE82433F582E99F
:104D20003400F583E0F5D988828983A3A882A9831A
:104D30001AEA70E675E195900A267409F0A3740BDF
:104D4000F0A37459F0A3740CF0A37459F0A3740C7D
:104D5000F0A37459F0A3740CF0A37459F0A3740C6D
:104D6000F0A37459F0A3740CF0A37415F0A3740BA2
:104D7000F0900A347459F0A3740CF0A37459F0A3A2
:104D8000740CF0A37459F0A3740CF0A37459F0A33D
:104D9000740CF0A37459F0A3740CF0A37459F0A32D
:104DA000740CF09004E8E0F8A3E0C8240EF582E863
:104DB0003400F58374FFF0A3F0A3F0A3F09004E8AF
:104DC000E0F8A3E0C82414F582E83400F5837415F4
:104DD000F09003A27403F0024F3AC082C0839004A3
:104DE000E8E0F8A3E0C82406F582E83400F583E49F
:104DF00002460974F712174C9003D0E0F875F003DF
:104E0000A4C8AAF02AF974D228F8740339F9E8245E
:104E100005FAE93400FB8A828B83E0FCA3E0FD887D
:104E2000828983A3A3A3A3A3A3A3A3A3ECF0A3EDCD
:104E3000F088828983A3A3A3A3A3A3A3E024FFF8FC
:104E4000A3E034FFF98A828B83E8F0A3E9F0024FF4
:104E50003A74F712174CEAFEEBFF9061D0E0600362
:104E6000024F2E75D90E75D90375D904EE248BF532
:104E700082EF3400F583E5822408F8E5833400F9F5
:104E8000E0F5D9A3E865827003E9658370F2EE244A
:104E900083F582EF3400F583E5822404F8E583345A
:104EA00000F9E0F5D9A3E865827003E9658370F243
:104EB00075E1957908EE248BFAEF3400FB120C05AE
:104EC0007904EE2483FAEF3400FB120C057C00EE2B
:104ED000F8EFF9ECFAC3E49AFA95E0FBEE2AFAEF60
:104EE0003BFBEA248AF582EB3400F583E0C0E0E87E
:104EF00024AAF582E93400F583D0E0F00C88828999
:104F000083A3A882A983ECC3940840C7EE246FF55D
:104F100082EF3400F583E0F8A3E0F9EE2471F58226
:104F2000EF3400F583E8F0A3E9F07901800279001D
:104F30008008F0EEA2E092AF79007F0102181EC057
:104F400082C08375D90275D90375D90575E195EAD3
:104F5000246FF582EB3400F583E0F8A3E0F9EA244E
:104F600071F582EB3400F583E8F0A3E9F0790102F2
:104F7000460C74F612174CEAFEEBFF9005457406DA
:104F8000F0750845750905780812195F7C017903E9
:104F9000120C4D74021216F275D90675D90375827A
:104FA00045758305E0F5D9A3E582644A7004E5837D
:104FB000640570F075E1959003A2E06408701EEE40
:104FC000246FF582EF3400F583E0F8A3E0F9EE24D6
:104FD00071F582EF3400F583E8F0A3E9F07901027E
:104FE000524074F612174CEAFEEBFF9061D0E0706D
:104FF000667801900545740BF09003A2E064077099
:1050000019750845750905780812195F7C0179033F
:10501000120C4D74021216F27805740128F5D97538
:10502000D903758245758305E8FAE0F5D9A31AEA34
:1050300070F875E195EE246FF582EF3400F583E0AA
:10504000F8A3E0F9EE2471F582EF3400F583E8F07F
:10505000A3E9F079018002790002524074F7121737
:105060004CEAFEEBFF75D90375D90375D90DEE2413
:10507000DDF582EF3400F583E0F5D975E19579042B
:10508000120D6DEE246FF582EF3400F583E0F8A386
:10509000E0F9EE2471F582EF3400F583E8F0A3E93E
:1050A000F07901024F3A74F612174CEAFEEBFF90CA
:1050B00061D0E0F87480C398FAEE2482F582EF3470
:1050C00000F583E06004780480027800E8240BF89F
:1050D000EAC398500302516B7D09900545EDF0EE4F
:1050E00024E2F8EF3400F97A467B057C088882894F
:1050F00083E08A828B83F088828983A3A882A98334
:105100008A828B83A3AA82AB831CEC70E0EE24829C
:10511000F582EF3400F583E0601D750845750905DB
:10512000780812195F7C097903EEFAEFFB120C4D37
:1051300074021216F27D0D74012DF5D975D903751F
:1051400082457583058D08E0F5D9A31508E508703B
:10515000F675E1957904120D6DEE241DF582EF349C
:1051600000F583E4F0A3F079018002790002524057
:1051700074F612174CEAFEEBFF9061D0E0F87480F1
:10518000C398FAEE2482F582EF3400F583E06004E0
:10519000780480027800E82408F8EAC398500302F3
:1051A000523E7806900545740CF09003BFE09005E0
:1051B00046F09003C0E0900547F09003C1E09005F1
:1051C00048F09003C2E0900549F09003C3E09005D9
:1051D0004AF0EE2482F582EF3400F583E0601B751F
:1051E0000845750905780812195F7C067903EEFAFF
:1051F000120C4D74021216F2780A740128F5D97552
:10520000D9037582457583058808E0F5D9A315088B
:10521000E50870F675E1957904120D6DEE246FF5D1
:1052200082EF3400F583E0F8A3E0F9EE2471F58213
:10523000EF3400F583E8F0A3E9F07901800279000A
:105240007F0202181E74F612174CEAFEEBFF906103
:10525000D0E0F87480C398FAEE2482F582EF34002F
:10526000F583E06004780480027800E82404F8EA1A
:10527000C398500302531F7802900545E8F0EE24CE
:10528000F4F582EF3400F583E0900546F0EE2482D9
:10529000F582EF3400F583E0601B7508457509055C
:1052A000780812195F7C027903EEFA120C4D740231
:1052B0001216F27806740128F5D975D9037582455E
:1052C0007583058808E0F5D9A31508E50870F6751B
:1052D000E195EE2473F582EF3400F583E4F0EE24DB
:1052E0007FF582EF3400F583E4F0EE241DF582EFC4
:1052F0003400F583E4F0A3F07904120D6DEE240D73
:10530000F582EF3400F583E0F8A3E0F9EE2471F5BF
:1053100082EF3400F583E8F0A3E9F07901800279A7
:105320000002524074F612174C9061D0E0F874807D
:10533000C398FCEA2482F582EB3400F583E0600434
:10534000780480027800E82404F8ECC398405B7984
:10535000029005457407F0EA24F5F582EB3400F578
:1053600083E0900546F0EA2482F582EB3400F58371
:10537000E06018750845750905780812195F7C0208
:1053800009120C4D74021216F27906740129F5D92E
:1053900075D903758245758305E9F8E0F5D9A31839
:1053A000E870F875E1957901800279000252407445
:1053B000F512174CE9FCA2AFE433F50AC2AF7D0049
:1053C00080010DEA246EF582EB3400F583E0F8ED00
:1053D000C398501A8D08EA2508F8EB3400F9E82440
:1053E0006AF582E93400F583E06C70D68024EA2403
:1053F0006EF8EB3400F9E0FEEA2EFAEB3400FBEA3B
:10540000246AF582EB3400F583ECF088828983E02E
:1054100004F0E50AA2E092AF7F0302181E74F612B0
:10542000174CA2AFE433FDC2AFEA246EF582EB3431
:1054300000F583E014F07C0060368C08EA2508F85B
:10544000EB3400F9E8246BF582E93400F583E0C021
:10545000E0E8246AF582E93400F583D0E0F00CEA54
:10546000246EF582EB3400F583E0F8ECC39840CA73
:10547000EA246DF582EB3400F58374FFF0EA2469C9
:10548000F582EB3400F583E4F0EDA2E092AF025236
:1054900040C082C083E5A8F8C2AFEA246AF582EB77
:1054A0003400F583E9F0EA2469F582EB3400F583F2
:1054B000E4F0E8A2E7A2E792AF02460C74F31217F9
:1054C0004CEAFEEBFFECFAEDFB8A828B83A3A3A3ED
:1054D000A3E0541FF0EE2436F582EF3400F583E4A8
:1054E000F0F50AEEFCEFFD8A828B83E0C0E0EC244D
:1054F0005DF582ED3400F583D0E0F0750B00E50A30
:1055000033333354F8F50C8A828B83E0F508750940
:1055100000E50B78081216AAE508A2E0502FEE2449
:1055200036F8EF3400F988828983E0F508EE250823
:10553000F508EF3400F509E5082438F582E509346B
:1055400000F583E50CF088828983E004F0050B0503
:105550000CE50BC3940840AF050A8A828B83A3AA8B
:1055600082AB838C828D83A3AC82AD83E50AC39426
:105570000550030254E77F0502181E74F712174CFA
:105580009003CEE0640170030256D97A009003D4F0
:10559000E060030256D97401F0A3E4F0A3F0900494
:1055A0003404F0900439F09003D7E4F0A3F0A3F0B2
:1055B000A3F09003E104F0900407E4F09003EAF014
:1055C000A3F0A3F0A3F0A3F0A3F0A3F0900451F094
:1055D000900445F090043A7480F0A3E4F090044005
:1055E000F09004BCF0A3F0A3F0A3F0A3F0A3F0A309
:1055F000F0A3F09004C5F0900454F09004A4F0A33C
:10560000F0A3F0A3F0A3F0A3F0A3F0A3F0A3F0A302
:10561000F09004B0F09004B2F09004AEF09004C8A2
:10562000F0A3F0A3F0A3F0A3F0A3F0A3F0A3F0780D
:10563000CE7903E8246EF582E93400F58374FFF037
:105640000A88828983A3A882A983EAC3940440E3D9
:105650007ACE7B0378DC790488828983E0C0E0EA33
:105660002461F582EB3400F583D0E0F088828983F1
:10567000A3A882A9838A828B83A3AA82AB83E864CE
:10568000E17003E9640470D07ACE7B0378B57903C6
:1056900088828983A3E0C0E0EA24E6F582EB340047
:1056A000F583D0E0F088828983A3A882A9838A82C7
:1056B0008B83A3AA82AB83E864BD7003E9640370A3
:1056C000CF9003CEE004F0640170089003D6E09020
:1056D00003D0F07AD27B0380047A007B00024F3A39
:1056E000C082C0839003D5E4F09003D4F09003CE41
:1056F000F0A3F0A374FFF075E1F102460CC082C084
:1057000083780079009003D5E0600478D27903882B
:10571000828983A3A3A3A3E0F902460C74F61217AF
:105720004CEAFEEBFFEE2463F582EF3400F583E0F4
:10573000F8A3E0F9E84970030257C1EE2463F8EFDB
:105740003400F97A007B00A2AFE433F508C2AF88D9
:10575000828983E0FCA3E0FDEC4D603A8882898376
:10576000E0FAA3E0FB8A828B83E0FCA3E0FD888261
:105770008983ECF0A3EDF08A828B83E4F0A3F088B8
:10578000828983E0FCA3E0FDEC4D700A8882898366
:10579000A3A3E4F0A3F0E508A2E092AF12126B908D
:1057A00004E2E004F09004E3E004F0EE2463F58208
:1057B000EF3400F583E0F8A3E0F9E849600302570D
:1057C0003B8E828F83A3A3A3E0600F8E828F83A37F
:1057D000A3A3E4F09003CFE014F09003CEE014F024
:1057E00070069003D074FFF08E828F83A3A3E4F041
:1057F0009004E1E0700D9003CFE064017005790042
:10580000120D4FEEFAEFFB120C7D02524074F712AC
:10581000174CEAFEEBFF8E828F83A3A3A3A3E0FACB
:105820007B00120953EEFAEFFB120BCF120C65024C
:105830004F3AC082C08378B5790388828983A3E414
:10584000F088828983A3A882A983E864BD7003E9F4
:10585000640370E69003B6740102460B74F61217E7
:105860004CEAFEEBFFEC2403F8ED3400F9880889DC
:1058700009EC2407F8ED3400F9E8FCE9FD8C828D91
:1058800083E0F8A3E0F9850882850983E0FAA3E0C4
:10589000FB121651EE240DF582EF3400F583E8F08B
:1058A000A3E9F08C828D83E0F8A3E0F98508828576
:1058B0000983E0FAA3E0FB1216518B09EA4509605F
:1058C00013EE240DF582EF3400F583E02401F0A3FC
:1058D000E03400F002524074F612174CEAFEEBFF7F
:1058E000EE242EF582EF3400F583E0FCA3E0FD7892
:1058F0000079FAECFAEDFB121651EE246FF582EF07
:105900003400F583E8F0A3E9F0780079FAECFAEDD9
:10591000FB1216518B09EA45096013EE246FF582DC
:10592000EF3400F583E02401F0A3E03400F00252EC
:105930004074EC12174CEAFEEBFF7414121728782F
:1059400008121594120D0D8A0C8B0D8C0E8D0F758F
:105950001002751100751200751300780C79101281
:1059600014FA7510FF7511FF7512FF780C7910127B
:10597000155B780C12195B8E828F83E0F8A3E0F53B
:10598000838882A3A31215B212268F74041216F212
:10599000E96003025A958E828F83E02402F8A3E027
:1059A0003400F9E8FAE9FB8A828B83780812152023
:1059B0008A828B837508FF7509FF750AFF750B00D6
:1059C0007808121581EE240BF582EF3400F583C0C0
:1059D00082C0838E828F83A3A3A3A3A3E02401F8B4
:1059E000A3E03400F9D083D082E0687003A3E069BB
:1059F00070057901025A978E828F83A3A3A3A3A374
:105A0000A3A3E02401F0A3E03400F0EE2473F582B8
:105A1000EF3400F583E064017036EE2474F582EF14
:105A20003400F583E0F8A3E0F98E828F83A3A3A36B
:105A3000A3A3A3A3E0687003A3E0697013EE24742A
:105A4000F582EF3400F583E02401F0A3E03400F0A8
:105A5000EE247FF582EF3400F583E064017036EECA
:105A60002480F582EF3400F583E0F8A3E0F98E821C
:105A70008F83A3A3A3A3A3A3A3E0687003A3E069F8
:105A80007013EE2480F582EF3400F583E02401F0FA
:105A9000A3E03400F079000247A474F612174CE931
:105AA000FEECFFEA2462F582EB3400F583E064014A
:105AB0006003025B439061D0E0F508EA2482F5823E
:105AC000EB3400F583E06004780480027800748091
:105AD000C39508FC95E0FDEF28F8E43400F9E824CC
:105AE00002F8E93400F9EC98ED99A2D265D0334080
:105AF0004E740A121728E0F508A3E0F509EA24829B
:105B0000F582EB3400F583E06015780812195FEF39
:105B1000FCEEF9120C4D74021216F274042FFF748D
:105B2000012FF5D98ED9EF600F850882850983F89A
:105B3000E0F5D9A318E870F875E195790080067949
